{"abi":[{"inputs":[{"internalType":"string","name":"name","type":"string"},{"internalType":"uint256","name":"minimum","type":"uint256"},{"internalType":"address","name":"creator","type":"address"}],"stateMutability":"nonpayable","type":"constructor"},{"inputs":[{"internalType":"uint256","name":"index","type":"uint256"}],"name":"approveRequest","outputs":[],"stateMutability":"nonpayable","type":"function"},{"inputs":[{"internalType":"address","name":"","type":"address"}],"name":"approvers","outputs":[{"internalType":"bool","name":"","type":"bool"}],"stateMutability":"view","type":"function"},{"inputs":[],"name":"approversCount","outputs":[{"internalType":"uint256","name":"","type":"uint256"}],"stateMutability":"view","type":"function"},{"inputs":[],"name":"contractName","outputs":[{"internalType":"string","name":"","type":"string"}],"stateMutability":"view","type":"function"},{"inputs":[],"name":"contribute","outputs":[],"stateMutability":"payable","type":"function"},{"inputs":[{"internalType":"string","name":"description","type":"string"},{"internalType":"uint256","name":"value","type":"uint256"},{"internalType":"address","name":"recipient","type":"address"}],"name":"createRequest","outputs":[],"stateMutability":"nonpayable","type":"function"},{"inputs":[{"internalType":"uint256","name":"index","type":"uint256"}],"name":"finishRequest","outputs":[],"stateMutability":"nonpayable","type":"function"},{"inputs":[],"name":"getDetail","outputs":[{"internalType":"string","name":"","type":"string"},{"internalType":"address","name":"","type":"address"},{"internalType":"uint256","name":"","type":"uint256"},{"internalType":"uint256","name":"","type":"uint256"},{"internalType":"uint256","name":"","type":"uint256"},{"internalType":"uint256","name":"","type":"uint256"}],"stateMutability":"view","type":"function"},{"inputs":[],"name":"manager","outputs":[{"internalType":"address","name":"","type":"address"}],"stateMutability":"view","type":"function"},{"inputs":[],"name":"minimumContribution","outputs":[{"internalType":"uint256","name":"","type":"uint256"}],"stateMutability":"view","type":"function"},{"inputs":[{"internalType":"uint256","name":"","type":"uint256"}],"name":"requests","outputs":[{"internalType":"string","name":"description","type":"string"},{"internalType":"uint256","name":"value","type":"uint256"},{"internalType":"address","name":"recipient","type":"address"},{"internalType":"bool","name":"complete","type":"bool"},{"internalType":"uint256","name":"approvalsCount","type":"uint256"}],"stateMutability":"view","type":"function"},{"inputs":[],"name":"requestsCount","outputs":[{"internalType":"uint256","name":"","type":"uint256"}],"stateMutability":"view","type":"function"},{"inputs":[{"internalType":"string","name":"name","type":"string"}],"name":"updateContractName","outputs":[],"stateMutability":"nonpayable","type":"function"}],"devdoc":{"kind":"dev","methods":{},"version":1},"evm":{"assembly":"    /* \"Donation.sol\":449:2676  contract Donation {... */\n  mstore(0x40, 0x80)\n    /* \"Donation.sol\":1013:1178  constructor(string memory name, uint minimum, address creator) {... */\n  callvalue\n  dup1\n  iszero\n  tag_1\n  jumpi\n  0x00\n  dup1\n  revert\ntag_1:\n  pop\n  mload(0x40)\n  sub(codesize, bytecodeSize)\n  dup1\n  bytecodeSize\n  dup4\n  codecopy\n  dup2\n  dup2\n  add\n  0x40\n  mstore\n  dup2\n  add\n  swap1\n  tag_2\n  swap2\n  swap1\n  tag_3\n  jump\t// in\ntag_2:\n    /* \"Donation.sol\":1101:1105  name */\n  dup3\n    /* \"Donation.sol\":1086:1098  contractName */\n  0x02\n    /* \"Donation.sol\":1086:1105  contractName = name */\n  swap1\n  dup1\n  mload\n  swap1\n  0x20\n  add\n  swap1\n  tag_6\n  swap3\n  swap2\n  swap1\n  tag_7\n  jump\t// in\ntag_6:\n  pop\n    /* \"Donation.sol\":1137:1144  minimum */\n  dup2\n    /* \"Donation.sol\":1115:1134  minimumContribution */\n  0x01\n    /* \"Donation.sol\":1115:1144  minimumContribution = minimum */\n  dup2\n  swap1\n  sstore\n  pop\n    /* \"Donation.sol\":1164:1171  creator */\n  dup1\n    /* \"Donation.sol\":1154:1161  manager */\n  0x00\n  dup1\n    /* \"Donation.sol\":1154:1171  manager = creator */\n  0x0100\n  exp\n  dup2\n  sload\n  dup2\n  0xffffffffffffffffffffffffffffffffffffffff\n  mul\n  not\n  and\n  swap1\n  dup4\n  0xffffffffffffffffffffffffffffffffffffffff\n  and\n  mul\n  or\n  swap1\n  sstore\n  pop\n    /* \"Donation.sol\":1013:1178  constructor(string memory name, uint minimum, address creator) {... */\n  pop\n  pop\n  pop\n    /* \"Donation.sol\":449:2676  contract Donation {... */\n  jump(tag_8)\ntag_7:\n  dup3\n  dup1\n  sload\n  tag_9\n  swap1\n  tag_10\n  jump\t// in\ntag_9:\n  swap1\n  0x00\n  mstore\n  keccak256(0x00, 0x20)\n  swap1\n  0x1f\n  add\n  0x20\n  swap1\n  div\n  dup2\n  add\n  swap3\n  dup3\n  tag_12\n  jumpi\n  0x00\n  dup6\n  sstore\n  jump(tag_11)\ntag_12:\n  dup3\n  0x1f\n  lt\n  tag_13\n  jumpi\n  dup1\n  mload\n  not(0xff)\n  and\n  dup4\n  dup1\n  add\n  or\n  dup6\n  sstore\n  jump(tag_11)\ntag_13:\n  dup3\n  dup1\n  add\n  0x01\n  add\n  dup6\n  sstore\n  dup3\n  iszero\n  tag_11\n  jumpi\n  swap2\n  dup3\n  add\ntag_14:\n  dup3\n  dup2\n  gt\n  iszero\n  tag_15\n  jumpi\n  dup3\n  mload\n  dup3\n  sstore\n  swap2\n  0x20\n  add\n  swap2\n  swap1\n  0x01\n  add\n  swap1\n  jump(tag_14)\ntag_15:\ntag_11:\n  pop\n  swap1\n  pop\n  tag_16\n  swap2\n  swap1\n  tag_17\n  jump\t// in\ntag_16:\n  pop\n  swap1\n  jump\t// out\ntag_17:\ntag_18:\n  dup1\n  dup3\n  gt\n  iszero\n  tag_19\n  jumpi\n  0x00\n  dup2\n  0x00\n  swap1\n  sstore\n  pop\n  0x01\n  add\n  jump(tag_18)\ntag_19:\n  pop\n  swap1\n  jump\t// out\n    /* \"#utility.yul\":7:82   */\ntag_20:\n    /* \"#utility.yul\":40:46   */\n  0x00\n    /* \"#utility.yul\":73:75   */\n  0x40\n    /* \"#utility.yul\":67:76   */\n  mload\n    /* \"#utility.yul\":57:76   */\n  swap1\n  pop\n    /* \"#utility.yul\":7:82   */\n  swap1\n  jump\t// out\n    /* \"#utility.yul\":88:205   */\ntag_21:\n    /* \"#utility.yul\":197:198   */\n  0x00\n    /* \"#utility.yul\":194:195   */\n  dup1\n    /* \"#utility.yul\":187:199   */\n  revert\n    /* \"#utility.yul\":211:328   */\ntag_22:\n    /* \"#utility.yul\":320:321   */\n  0x00\n    /* \"#utility.yul\":317:318   */\n  dup1\n    /* \"#utility.yul\":310:322   */\n  revert\n    /* \"#utility.yul\":334:451   */\ntag_23:\n    /* \"#utility.yul\":443:444   */\n  0x00\n    /* \"#utility.yul\":440:441   */\n  dup1\n    /* \"#utility.yul\":433:445   */\n  revert\n    /* \"#utility.yul\":457:574   */\ntag_24:\n    /* \"#utility.yul\":566:567   */\n  0x00\n    /* \"#utility.yul\":563:564   */\n  dup1\n    /* \"#utility.yul\":556:568   */\n  revert\n    /* \"#utility.yul\":580:682   */\ntag_25:\n    /* \"#utility.yul\":621:627   */\n  0x00\n    /* \"#utility.yul\":672:674   */\n  0x1f\n    /* \"#utility.yul\":668:675   */\n  not\n    /* \"#utility.yul\":663:665   */\n  0x1f\n    /* \"#utility.yul\":656:661   */\n  dup4\n    /* \"#utility.yul\":652:666   */\n  add\n    /* \"#utility.yul\":648:676   */\n  and\n    /* \"#utility.yul\":638:676   */\n  swap1\n  pop\n    /* \"#utility.yul\":580:682   */\n  swap2\n  swap1\n  pop\n  jump\t// out\n    /* \"#utility.yul\":688:868   */\ntag_26:\n    /* \"#utility.yul\":736:813   */\n  0x4e487b7100000000000000000000000000000000000000000000000000000000\n    /* \"#utility.yul\":733:734   */\n  0x00\n    /* \"#utility.yul\":726:814   */\n  mstore\n    /* \"#utility.yul\":833:837   */\n  0x41\n    /* \"#utility.yul\":830:831   */\n  0x04\n    /* \"#utility.yul\":823:838   */\n  mstore\n    /* \"#utility.yul\":857:861   */\n  0x24\n    /* \"#utility.yul\":854:855   */\n  0x00\n    /* \"#utility.yul\":847:862   */\n  revert\n    /* \"#utility.yul\":874:1155   */\ntag_27:\n    /* \"#utility.yul\":957:984   */\n  tag_50\n    /* \"#utility.yul\":979:983   */\n  dup3\n    /* \"#utility.yul\":957:984   */\n  tag_25\n  jump\t// in\ntag_50:\n    /* \"#utility.yul\":949:955   */\n  dup2\n    /* \"#utility.yul\":945:985   */\n  add\n    /* \"#utility.yul\":1087:1093   */\n  dup2\n    /* \"#utility.yul\":1075:1085   */\n  dup2\n    /* \"#utility.yul\":1072:1094   */\n  lt\n    /* \"#utility.yul\":1051:1069   */\n  0xffffffffffffffff\n    /* \"#utility.yul\":1039:1049   */\n  dup3\n    /* \"#utility.yul\":1036:1070   */\n  gt\n    /* \"#utility.yul\":1033:1095   */\n  or\n    /* \"#utility.yul\":1030:1118   */\n  iszero\n  tag_51\n  jumpi\n    /* \"#utility.yul\":1098:1116   */\n  tag_52\n  tag_26\n  jump\t// in\ntag_52:\n    /* \"#utility.yul\":1030:1118   */\ntag_51:\n    /* \"#utility.yul\":1138:1148   */\n  dup1\n    /* \"#utility.yul\":1134:1136   */\n  0x40\n    /* \"#utility.yul\":1127:1149   */\n  mstore\n    /* \"#utility.yul\":917:1155   */\n  pop\n    /* \"#utility.yul\":874:1155   */\n  pop\n  pop\n  jump\t// out\n    /* \"#utility.yul\":1161:1290   */\ntag_28:\n    /* \"#utility.yul\":1195:1201   */\n  0x00\n    /* \"#utility.yul\":1222:1242   */\n  tag_54\n  tag_20\n  jump\t// in\ntag_54:\n    /* \"#utility.yul\":1212:1242   */\n  swap1\n  pop\n    /* \"#utility.yul\":1251:1284   */\n  tag_55\n    /* \"#utility.yul\":1279:1283   */\n  dup3\n    /* \"#utility.yul\":1271:1277   */\n  dup3\n    /* \"#utility.yul\":1251:1284   */\n  tag_27\n  jump\t// in\ntag_55:\n    /* \"#utility.yul\":1161:1290   */\n  swap2\n  swap1\n  pop\n  jump\t// out\n    /* \"#utility.yul\":1296:1604   */\ntag_29:\n    /* \"#utility.yul\":1358:1362   */\n  0x00\n    /* \"#utility.yul\":1448:1466   */\n  0xffffffffffffffff\n    /* \"#utility.yul\":1440:1446   */\n  dup3\n    /* \"#utility.yul\":1437:1467   */\n  gt\n    /* \"#utility.yul\":1434:1490   */\n  iszero\n  tag_57\n  jumpi\n    /* \"#utility.yul\":1470:1488   */\n  tag_58\n  tag_26\n  jump\t// in\ntag_58:\n    /* \"#utility.yul\":1434:1490   */\ntag_57:\n    /* \"#utility.yul\":1508:1537   */\n  tag_59\n    /* \"#utility.yul\":1530:1536   */\n  dup3\n    /* \"#utility.yul\":1508:1537   */\n  tag_25\n  jump\t// in\ntag_59:\n    /* \"#utility.yul\":1500:1537   */\n  swap1\n  pop\n    /* \"#utility.yul\":1592:1596   */\n  0x20\n    /* \"#utility.yul\":1586:1590   */\n  dup2\n    /* \"#utility.yul\":1582:1597   */\n  add\n    /* \"#utility.yul\":1574:1597   */\n  swap1\n  pop\n    /* \"#utility.yul\":1296:1604   */\n  swap2\n  swap1\n  pop\n  jump\t// out\n    /* \"#utility.yul\":1610:1917   */\ntag_30:\n    /* \"#utility.yul\":1678:1679   */\n  0x00\n    /* \"#utility.yul\":1688:1801   */\ntag_61:\n    /* \"#utility.yul\":1702:1708   */\n  dup4\n    /* \"#utility.yul\":1699:1700   */\n  dup2\n    /* \"#utility.yul\":1696:1709   */\n  lt\n    /* \"#utility.yul\":1688:1801   */\n  iszero\n  tag_63\n  jumpi\n    /* \"#utility.yul\":1787:1788   */\n  dup1\n    /* \"#utility.yul\":1782:1785   */\n  dup3\n    /* \"#utility.yul\":1778:1789   */\n  add\n    /* \"#utility.yul\":1772:1790   */\n  mload\n    /* \"#utility.yul\":1768:1769   */\n  dup2\n    /* \"#utility.yul\":1763:1766   */\n  dup5\n    /* \"#utility.yul\":1759:1770   */\n  add\n    /* \"#utility.yul\":1752:1791   */\n  mstore\n    /* \"#utility.yul\":1724:1726   */\n  0x20\n    /* \"#utility.yul\":1721:1722   */\n  dup2\n    /* \"#utility.yul\":1717:1727   */\n  add\n    /* \"#utility.yul\":1712:1727   */\n  swap1\n  pop\n    /* \"#utility.yul\":1688:1801   */\n  jump(tag_61)\ntag_63:\n    /* \"#utility.yul\":1819:1825   */\n  dup4\n    /* \"#utility.yul\":1816:1817   */\n  dup2\n    /* \"#utility.yul\":1813:1826   */\n  gt\n    /* \"#utility.yul\":1810:1911   */\n  iszero\n  tag_64\n  jumpi\n    /* \"#utility.yul\":1899:1900   */\n  0x00\n    /* \"#utility.yul\":1890:1896   */\n  dup5\n    /* \"#utility.yul\":1885:1888   */\n  dup5\n    /* \"#utility.yul\":1881:1897   */\n  add\n    /* \"#utility.yul\":1874:1901   */\n  mstore\n    /* \"#utility.yul\":1810:1911   */\ntag_64:\n    /* \"#utility.yul\":1659:1917   */\n  pop\n    /* \"#utility.yul\":1610:1917   */\n  pop\n  pop\n  pop\n  jump\t// out\n    /* \"#utility.yul\":1923:2344   */\ntag_31:\n    /* \"#utility.yul\":2012:2017   */\n  0x00\n    /* \"#utility.yul\":2037:2103   */\n  tag_66\n    /* \"#utility.yul\":2053:2102   */\n  tag_67\n    /* \"#utility.yul\":2095:2101   */\n  dup5\n    /* \"#utility.yul\":2053:2102   */\n  tag_29\n  jump\t// in\ntag_67:\n    /* \"#utility.yul\":2037:2103   */\n  tag_28\n  jump\t// in\ntag_66:\n    /* \"#utility.yul\":2028:2103   */\n  swap1\n  pop\n    /* \"#utility.yul\":2126:2132   */\n  dup3\n    /* \"#utility.yul\":2119:2124   */\n  dup2\n    /* \"#utility.yul\":2112:2133   */\n  mstore\n    /* \"#utility.yul\":2164:2168   */\n  0x20\n    /* \"#utility.yul\":2157:2162   */\n  dup2\n    /* \"#utility.yul\":2153:2169   */\n  add\n    /* \"#utility.yul\":2202:2205   */\n  dup5\n    /* \"#utility.yul\":2193:2199   */\n  dup5\n    /* \"#utility.yul\":2188:2191   */\n  dup5\n    /* \"#utility.yul\":2184:2200   */\n  add\n    /* \"#utility.yul\":2181:2206   */\n  gt\n    /* \"#utility.yul\":2178:2290   */\n  iszero\n  tag_68\n  jumpi\n    /* \"#utility.yul\":2209:2288   */\n  tag_69\n  tag_24\n  jump\t// in\ntag_69:\n    /* \"#utility.yul\":2178:2290   */\ntag_68:\n    /* \"#utility.yul\":2299:2338   */\n  tag_70\n    /* \"#utility.yul\":2331:2337   */\n  dup5\n    /* \"#utility.yul\":2326:2329   */\n  dup3\n    /* \"#utility.yul\":2321:2324   */\n  dup6\n    /* \"#utility.yul\":2299:2338   */\n  tag_30\n  jump\t// in\ntag_70:\n    /* \"#utility.yul\":2018:2344   */\n  pop\n    /* \"#utility.yul\":1923:2344   */\n  swap4\n  swap3\n  pop\n  pop\n  pop\n  jump\t// out\n    /* \"#utility.yul\":2364:2719   */\ntag_32:\n    /* \"#utility.yul\":2431:2436   */\n  0x00\n    /* \"#utility.yul\":2480:2483   */\n  dup3\n    /* \"#utility.yul\":2473:2477   */\n  0x1f\n    /* \"#utility.yul\":2465:2471   */\n  dup4\n    /* \"#utility.yul\":2461:2478   */\n  add\n    /* \"#utility.yul\":2457:2484   */\n  slt\n    /* \"#utility.yul\":2447:2569   */\n  tag_72\n  jumpi\n    /* \"#utility.yul\":2488:2567   */\n  tag_73\n  tag_23\n  jump\t// in\ntag_73:\n    /* \"#utility.yul\":2447:2569   */\ntag_72:\n    /* \"#utility.yul\":2598:2604   */\n  dup2\n    /* \"#utility.yul\":2592:2605   */\n  mload\n    /* \"#utility.yul\":2623:2713   */\n  tag_74\n    /* \"#utility.yul\":2709:2712   */\n  dup5\n    /* \"#utility.yul\":2701:2707   */\n  dup3\n    /* \"#utility.yul\":2694:2698   */\n  0x20\n    /* \"#utility.yul\":2686:2692   */\n  dup7\n    /* \"#utility.yul\":2682:2699   */\n  add\n    /* \"#utility.yul\":2623:2713   */\n  tag_31\n  jump\t// in\ntag_74:\n    /* \"#utility.yul\":2614:2713   */\n  swap2\n  pop\n    /* \"#utility.yul\":2437:2719   */\n  pop\n    /* \"#utility.yul\":2364:2719   */\n  swap3\n  swap2\n  pop\n  pop\n  jump\t// out\n    /* \"#utility.yul\":2725:2802   */\ntag_33:\n    /* \"#utility.yul\":2762:2769   */\n  0x00\n    /* \"#utility.yul\":2791:2796   */\n  dup2\n    /* \"#utility.yul\":2780:2796   */\n  swap1\n  pop\n    /* \"#utility.yul\":2725:2802   */\n  swap2\n  swap1\n  pop\n  jump\t// out\n    /* \"#utility.yul\":2808:2930   */\ntag_34:\n    /* \"#utility.yul\":2881:2905   */\n  tag_77\n    /* \"#utility.yul\":2899:2904   */\n  dup2\n    /* \"#utility.yul\":2881:2905   */\n  tag_33\n  jump\t// in\ntag_77:\n    /* \"#utility.yul\":2874:2879   */\n  dup2\n    /* \"#utility.yul\":2871:2906   */\n  eq\n    /* \"#utility.yul\":2861:2924   */\n  tag_78\n  jumpi\n    /* \"#utility.yul\":2920:2921   */\n  0x00\n    /* \"#utility.yul\":2917:2918   */\n  dup1\n    /* \"#utility.yul\":2910:2922   */\n  revert\n    /* \"#utility.yul\":2861:2924   */\ntag_78:\n    /* \"#utility.yul\":2808:2930   */\n  pop\n  jump\t// out\n    /* \"#utility.yul\":2936:3079   */\ntag_35:\n    /* \"#utility.yul\":2993:2998   */\n  0x00\n    /* \"#utility.yul\":3024:3030   */\n  dup2\n    /* \"#utility.yul\":3018:3031   */\n  mload\n    /* \"#utility.yul\":3009:3031   */\n  swap1\n  pop\n    /* \"#utility.yul\":3040:3073   */\n  tag_80\n    /* \"#utility.yul\":3067:3072   */\n  dup2\n    /* \"#utility.yul\":3040:3073   */\n  tag_34\n  jump\t// in\ntag_80:\n    /* \"#utility.yul\":2936:3079   */\n  swap3\n  swap2\n  pop\n  pop\n  jump\t// out\n    /* \"#utility.yul\":3085:3211   */\ntag_36:\n    /* \"#utility.yul\":3122:3129   */\n  0x00\n    /* \"#utility.yul\":3162:3204   */\n  0xffffffffffffffffffffffffffffffffffffffff\n    /* \"#utility.yul\":3155:3160   */\n  dup3\n    /* \"#utility.yul\":3151:3205   */\n  and\n    /* \"#utility.yul\":3140:3205   */\n  swap1\n  pop\n    /* \"#utility.yul\":3085:3211   */\n  swap2\n  swap1\n  pop\n  jump\t// out\n    /* \"#utility.yul\":3217:3313   */\ntag_37:\n    /* \"#utility.yul\":3254:3261   */\n  0x00\n    /* \"#utility.yul\":3283:3307   */\n  tag_83\n    /* \"#utility.yul\":3301:3306   */\n  dup3\n    /* \"#utility.yul\":3283:3307   */\n  tag_36\n  jump\t// in\ntag_83:\n    /* \"#utility.yul\":3272:3307   */\n  swap1\n  pop\n    /* \"#utility.yul\":3217:3313   */\n  swap2\n  swap1\n  pop\n  jump\t// out\n    /* \"#utility.yul\":3319:3441   */\ntag_38:\n    /* \"#utility.yul\":3392:3416   */\n  tag_85\n    /* \"#utility.yul\":3410:3415   */\n  dup2\n    /* \"#utility.yul\":3392:3416   */\n  tag_37\n  jump\t// in\ntag_85:\n    /* \"#utility.yul\":3385:3390   */\n  dup2\n    /* \"#utility.yul\":3382:3417   */\n  eq\n    /* \"#utility.yul\":3372:3435   */\n  tag_86\n  jumpi\n    /* \"#utility.yul\":3431:3432   */\n  0x00\n    /* \"#utility.yul\":3428:3429   */\n  dup1\n    /* \"#utility.yul\":3421:3433   */\n  revert\n    /* \"#utility.yul\":3372:3435   */\ntag_86:\n    /* \"#utility.yul\":3319:3441   */\n  pop\n  jump\t// out\n    /* \"#utility.yul\":3447:3590   */\ntag_39:\n    /* \"#utility.yul\":3504:3509   */\n  0x00\n    /* \"#utility.yul\":3535:3541   */\n  dup2\n    /* \"#utility.yul\":3529:3542   */\n  mload\n    /* \"#utility.yul\":3520:3542   */\n  swap1\n  pop\n    /* \"#utility.yul\":3551:3584   */\n  tag_88\n    /* \"#utility.yul\":3578:3583   */\n  dup2\n    /* \"#utility.yul\":3551:3584   */\n  tag_38\n  jump\t// in\ntag_88:\n    /* \"#utility.yul\":3447:3590   */\n  swap3\n  swap2\n  pop\n  pop\n  jump\t// out\n    /* \"#utility.yul\":3596:4432   */\ntag_3:\n    /* \"#utility.yul\":3694:3700   */\n  0x00\n    /* \"#utility.yul\":3702:3708   */\n  dup1\n    /* \"#utility.yul\":3710:3716   */\n  0x00\n    /* \"#utility.yul\":3759:3761   */\n  0x60\n    /* \"#utility.yul\":3747:3756   */\n  dup5\n    /* \"#utility.yul\":3738:3745   */\n  dup7\n    /* \"#utility.yul\":3734:3757   */\n  sub\n    /* \"#utility.yul\":3730:3762   */\n  slt\n    /* \"#utility.yul\":3727:3846   */\n  iszero\n  tag_90\n  jumpi\n    /* \"#utility.yul\":3765:3844   */\n  tag_91\n  tag_21\n  jump\t// in\ntag_91:\n    /* \"#utility.yul\":3727:3846   */\ntag_90:\n    /* \"#utility.yul\":3906:3907   */\n  0x00\n    /* \"#utility.yul\":3895:3904   */\n  dup5\n    /* \"#utility.yul\":3891:3908   */\n  add\n    /* \"#utility.yul\":3885:3909   */\n  mload\n    /* \"#utility.yul\":3936:3954   */\n  0xffffffffffffffff\n    /* \"#utility.yul\":3928:3934   */\n  dup2\n    /* \"#utility.yul\":3925:3955   */\n  gt\n    /* \"#utility.yul\":3922:4039   */\n  iszero\n  tag_92\n  jumpi\n    /* \"#utility.yul\":3958:4037   */\n  tag_93\n  tag_22\n  jump\t// in\ntag_93:\n    /* \"#utility.yul\":3922:4039   */\ntag_92:\n    /* \"#utility.yul\":4063:4137   */\n  tag_94\n    /* \"#utility.yul\":4129:4136   */\n  dup7\n    /* \"#utility.yul\":4120:4126   */\n  dup3\n    /* \"#utility.yul\":4109:4118   */\n  dup8\n    /* \"#utility.yul\":4105:4127   */\n  add\n    /* \"#utility.yul\":4063:4137   */\n  tag_32\n  jump\t// in\ntag_94:\n    /* \"#utility.yul\":4053:4137   */\n  swap4\n  pop\n    /* \"#utility.yul\":3856:4147   */\n  pop\n    /* \"#utility.yul\":4186:4188   */\n  0x20\n    /* \"#utility.yul\":4212:4276   */\n  tag_95\n    /* \"#utility.yul\":4268:4275   */\n  dup7\n    /* \"#utility.yul\":4259:4265   */\n  dup3\n    /* \"#utility.yul\":4248:4257   */\n  dup8\n    /* \"#utility.yul\":4244:4266   */\n  add\n    /* \"#utility.yul\":4212:4276   */\n  tag_35\n  jump\t// in\ntag_95:\n    /* \"#utility.yul\":4202:4276   */\n  swap3\n  pop\n    /* \"#utility.yul\":4157:4286   */\n  pop\n    /* \"#utility.yul\":4325:4327   */\n  0x40\n    /* \"#utility.yul\":4351:4415   */\n  tag_96\n    /* \"#utility.yul\":4407:4414   */\n  dup7\n    /* \"#utility.yul\":4398:4404   */\n  dup3\n    /* \"#utility.yul\":4387:4396   */\n  dup8\n    /* \"#utility.yul\":4383:4405   */\n  add\n    /* \"#utility.yul\":4351:4415   */\n  tag_39\n  jump\t// in\ntag_96:\n    /* \"#utility.yul\":4341:4415   */\n  swap2\n  pop\n    /* \"#utility.yul\":4296:4425   */\n  pop\n    /* \"#utility.yul\":3596:4432   */\n  swap3\n  pop\n  swap3\n  pop\n  swap3\n  jump\t// out\n    /* \"#utility.yul\":4438:4618   */\ntag_40:\n    /* \"#utility.yul\":4486:4563   */\n  0x4e487b7100000000000000000000000000000000000000000000000000000000\n    /* \"#utility.yul\":4483:4484   */\n  0x00\n    /* \"#utility.yul\":4476:4564   */\n  mstore\n    /* \"#utility.yul\":4583:4587   */\n  0x22\n    /* \"#utility.yul\":4580:4581   */\n  0x04\n    /* \"#utility.yul\":4573:4588   */\n  mstore\n    /* \"#utility.yul\":4607:4611   */\n  0x24\n    /* \"#utility.yul\":4604:4605   */\n  0x00\n    /* \"#utility.yul\":4597:4612   */\n  revert\n    /* \"#utility.yul\":4624:4944   */\ntag_10:\n    /* \"#utility.yul\":4668:4674   */\n  0x00\n    /* \"#utility.yul\":4705:4706   */\n  0x02\n    /* \"#utility.yul\":4699:4703   */\n  dup3\n    /* \"#utility.yul\":4695:4707   */\n  div\n    /* \"#utility.yul\":4685:4707   */\n  swap1\n  pop\n    /* \"#utility.yul\":4752:4753   */\n  0x01\n    /* \"#utility.yul\":4746:4750   */\n  dup3\n    /* \"#utility.yul\":4742:4754   */\n  and\n    /* \"#utility.yul\":4773:4791   */\n  dup1\n    /* \"#utility.yul\":4763:4844   */\n  tag_99\n  jumpi\n    /* \"#utility.yul\":4829:4833   */\n  0x7f\n    /* \"#utility.yul\":4821:4827   */\n  dup3\n    /* \"#utility.yul\":4817:4834   */\n  and\n    /* \"#utility.yul\":4807:4834   */\n  swap2\n  pop\n    /* \"#utility.yul\":4763:4844   */\ntag_99:\n    /* \"#utility.yul\":4891:4893   */\n  0x20\n    /* \"#utility.yul\":4883:4889   */\n  dup3\n    /* \"#utility.yul\":4880:4894   */\n  lt\n    /* \"#utility.yul\":4860:4878   */\n  dup2\n    /* \"#utility.yul\":4857:4895   */\n  sub\n    /* \"#utility.yul\":4854:4938   */\n  tag_100\n  jumpi\n    /* \"#utility.yul\":4910:4928   */\n  tag_101\n  tag_40\n  jump\t// in\ntag_101:\n    /* \"#utility.yul\":4854:4938   */\ntag_100:\n    /* \"#utility.yul\":4675:4944   */\n  pop\n    /* \"#utility.yul\":4624:4944   */\n  swap2\n  swap1\n  pop\n  jump\t// out\n    /* \"Donation.sol\":449:2676  contract Donation {... */\ntag_8:\n  dataSize(sub_0)\n  dup1\n  dataOffset(sub_0)\n  0x00\n  codecopy\n  0x00\n  return\nstop\n\nsub_0: assembly {\n        /* \"Donation.sol\":449:2676  contract Donation {... */\n      mstore(0x40, 0x80)\n      jumpi(tag_1, lt(calldatasize, 0x04))\n      shr(0xe0, calldataload(0x00))\n      dup1\n      0x8a9cfd55\n      gt\n      tag_15\n      jumpi\n      dup1\n      0xce50ac76\n      gt\n      tag_16\n      jumpi\n      dup1\n      0xce50ac76\n      eq\n      tag_11\n      jumpi\n      dup1\n      0xd7bb99ba\n      eq\n      tag_12\n      jumpi\n      dup1\n      0xd7d1bbdb\n      eq\n      tag_13\n      jumpi\n      dup1\n      0xfbfa4b7f\n      eq\n      tag_14\n      jumpi\n      jump(tag_1)\n    tag_16:\n      dup1\n      0x8a9cfd55\n      eq\n      tag_8\n      jumpi\n      dup1\n      0x937e09b1\n      eq\n      tag_9\n      jumpi\n      dup1\n      0xcc58b5ef\n      eq\n      tag_10\n      jumpi\n      jump(tag_1)\n    tag_15:\n      dup1\n      0x0a144391\n      eq\n      tag_2\n      jumpi\n      dup1\n      0x481c6a75\n      eq\n      tag_3\n      jumpi\n      dup1\n      0x5b2a4cff\n      eq\n      tag_4\n      jumpi\n      dup1\n      0x75d0c0dc\n      eq\n      tag_5\n      jumpi\n      dup1\n      0x81d12c58\n      eq\n      tag_6\n      jumpi\n      dup1\n      0x82fde093\n      eq\n      tag_7\n      jumpi\n    tag_1:\n      0x00\n      dup1\n      revert\n        /* \"Donation.sol\":771:812  mapping(address => bool) public approvers */\n    tag_2:\n      callvalue\n      dup1\n      iszero\n      tag_17\n      jumpi\n      0x00\n      dup1\n      revert\n    tag_17:\n      pop\n      tag_18\n      0x04\n      dup1\n      calldatasize\n      sub\n      dup2\n      add\n      swap1\n      tag_19\n      swap2\n      swap1\n      tag_20\n      jump\t// in\n    tag_19:\n      tag_21\n      jump\t// in\n    tag_18:\n      mload(0x40)\n      tag_22\n      swap2\n      swap1\n      tag_23\n      jump\t// in\n    tag_22:\n      mload(0x40)\n      dup1\n      swap2\n      sub\n      swap1\n      return\n        /* \"Donation.sol\":673:695  address public manager */\n    tag_3:\n      callvalue\n      dup1\n      iszero\n      tag_24\n      jumpi\n      0x00\n      dup1\n      revert\n    tag_24:\n      pop\n      tag_25\n      tag_26\n      jump\t// in\n    tag_25:\n      mload(0x40)\n      tag_27\n      swap2\n      swap1\n      tag_28\n      jump\t// in\n    tag_27:\n      mload(0x40)\n      dup1\n      swap2\n      sub\n      swap1\n      return\n        /* \"Donation.sol\":2365:2673  function getDetail() public view returns (... */\n    tag_4:\n      callvalue\n      dup1\n      iszero\n      tag_29\n      jumpi\n      0x00\n      dup1\n      revert\n    tag_29:\n      pop\n      tag_30\n      tag_31\n      jump\t// in\n    tag_30:\n      mload(0x40)\n      tag_32\n      swap7\n      swap6\n      swap5\n      swap4\n      swap3\n      swap2\n      swap1\n      tag_33\n      jump\t// in\n    tag_32:\n      mload(0x40)\n      dup1\n      swap2\n      sub\n      swap1\n      return\n        /* \"Donation.sol\":738:764  string public contractName */\n    tag_5:\n      callvalue\n      dup1\n      iszero\n      tag_34\n      jumpi\n      0x00\n      dup1\n      revert\n    tag_34:\n      pop\n      tag_35\n      tag_36\n      jump\t// in\n    tag_35:\n      mload(0x40)\n      tag_37\n      swap2\n      swap1\n      tag_38\n      jump\t// in\n    tag_37:\n      mload(0x40)\n      dup1\n      swap2\n      sub\n      swap1\n      return\n        /* \"Donation.sol\":818:858  mapping(uint => Request) public requests */\n    tag_6:\n      callvalue\n      dup1\n      iszero\n      tag_39\n      jumpi\n      0x00\n      dup1\n      revert\n    tag_39:\n      pop\n      tag_40\n      0x04\n      dup1\n      calldatasize\n      sub\n      dup2\n      add\n      swap1\n      tag_41\n      swap2\n      swap1\n      tag_42\n      jump\t// in\n    tag_41:\n      tag_43\n      jump\t// in\n    tag_40:\n      mload(0x40)\n      tag_44\n      swap6\n      swap5\n      swap4\n      swap3\n      swap2\n      swap1\n      tag_45\n      jump\t// in\n    tag_44:\n      mload(0x40)\n      dup1\n      swap2\n      sub\n      swap1\n      return\n        /* \"Donation.sol\":895:921  uint public approversCount */\n    tag_7:\n      callvalue\n      dup1\n      iszero\n      tag_46\n      jumpi\n      0x00\n      dup1\n      revert\n    tag_46:\n      pop\n      tag_47\n      tag_48\n      jump\t// in\n    tag_47:\n      mload(0x40)\n      tag_49\n      swap2\n      swap1\n      tag_50\n      jump\t// in\n    tag_49:\n      mload(0x40)\n      dup1\n      swap2\n      sub\n      swap1\n      return\n        /* \"Donation.sol\":1455:1774  function createRequest(string memory description, uint value, address recipient) public isManager {... */\n    tag_8:\n      callvalue\n      dup1\n      iszero\n      tag_51\n      jumpi\n      0x00\n      dup1\n      revert\n    tag_51:\n      pop\n      tag_52\n      0x04\n      dup1\n      calldatasize\n      sub\n      dup2\n      add\n      swap1\n      tag_53\n      swap2\n      swap1\n      tag_54\n      jump\t// in\n    tag_53:\n      tag_55\n      jump\t// in\n    tag_52:\n      stop\n        /* \"Donation.sol\":701:732  uint public minimumContribution */\n    tag_9:\n      callvalue\n      dup1\n      iszero\n      tag_56\n      jumpi\n      0x00\n      dup1\n      revert\n    tag_56:\n      pop\n      tag_57\n      tag_58\n      jump\t// in\n    tag_57:\n      mload(0x40)\n      tag_59\n      swap2\n      swap1\n      tag_50\n      jump\t// in\n    tag_59:\n      mload(0x40)\n      dup1\n      swap2\n      sub\n      swap1\n      return\n        /* \"Donation.sol\":2056:2359  function finishRequest(uint index) public isManager {... */\n    tag_10:\n      callvalue\n      dup1\n      iszero\n      tag_60\n      jumpi\n      0x00\n      dup1\n      revert\n    tag_60:\n      pop\n      tag_61\n      0x04\n      dup1\n      calldatasize\n      sub\n      dup2\n      add\n      swap1\n      tag_62\n      swap2\n      swap1\n      tag_42\n      jump\t// in\n    tag_62:\n      tag_63\n      jump\t// in\n    tag_61:\n      stop\n        /* \"Donation.sol\":1184:1285  function updateContractName(string memory name) public isManager {... */\n    tag_11:\n      callvalue\n      dup1\n      iszero\n      tag_64\n      jumpi\n      0x00\n      dup1\n      revert\n    tag_64:\n      pop\n      tag_65\n      0x04\n      dup1\n      calldatasize\n      sub\n      dup2\n      add\n      swap1\n      tag_66\n      swap2\n      swap1\n      tag_67\n      jump\t// in\n    tag_66:\n      tag_68\n      jump\t// in\n    tag_65:\n      stop\n        /* \"Donation.sol\":1291:1449  function contribute() public payable {... */\n    tag_12:\n      tag_69\n      tag_70\n      jump\t// in\n    tag_69:\n      stop\n        /* \"Donation.sol\":1780:2050  function approveRequest(uint index) public {... */\n    tag_13:\n      callvalue\n      dup1\n      iszero\n      tag_71\n      jumpi\n      0x00\n      dup1\n      revert\n    tag_71:\n      pop\n      tag_72\n      0x04\n      dup1\n      calldatasize\n      sub\n      dup2\n      add\n      swap1\n      tag_73\n      swap2\n      swap1\n      tag_42\n      jump\t// in\n    tag_73:\n      tag_74\n      jump\t// in\n    tag_72:\n      stop\n        /* \"Donation.sol\":864:889  uint public requestsCount */\n    tag_14:\n      callvalue\n      dup1\n      iszero\n      tag_75\n      jumpi\n      0x00\n      dup1\n      revert\n    tag_75:\n      pop\n      tag_76\n      tag_77\n      jump\t// in\n    tag_76:\n      mload(0x40)\n      tag_78\n      swap2\n      swap1\n      tag_50\n      jump\t// in\n    tag_78:\n      mload(0x40)\n      dup1\n      swap2\n      sub\n      swap1\n      return\n        /* \"Donation.sol\":771:812  mapping(address => bool) public approvers */\n    tag_21:\n      mstore(0x20, 0x03)\n      dup1\n      0x00\n      mstore\n      keccak256(0x00, 0x40)\n      0x00\n      swap2\n      pop\n      sload\n      swap1\n      0x0100\n      exp\n      swap1\n      div\n      0xff\n      and\n      dup2\n      jump\t// out\n        /* \"Donation.sol\":673:695  address public manager */\n    tag_26:\n      0x00\n      dup1\n      sload\n      swap1\n      0x0100\n      exp\n      swap1\n      div\n      0xffffffffffffffffffffffffffffffffffffffff\n      and\n      dup2\n      jump\t// out\n        /* \"Donation.sol\":2365:2673  function getDetail() public view returns (... */\n    tag_31:\n        /* \"Donation.sol\":2416:2429  string memory */\n      0x60\n        /* \"Donation.sol\":2431:2438  address */\n      0x00\n        /* \"Donation.sol\":2440:2444  uint */\n      dup1\n        /* \"Donation.sol\":2446:2450  uint */\n      0x00\n        /* \"Donation.sol\":2452:2456  uint */\n      dup1\n        /* \"Donation.sol\":2458:2462  uint */\n      0x00\n        /* \"Donation.sol\":2500:2512  contractName */\n      0x02\n        /* \"Donation.sol\":2526:2533  manager */\n      0x00\n      dup1\n      sload\n      swap1\n      0x0100\n      exp\n      swap1\n      div\n      0xffffffffffffffffffffffffffffffffffffffff\n      and\n        /* \"Donation.sol\":2547:2566  minimumContribution */\n      sload(0x01)\n        /* \"Donation.sol\":2580:2593  requestsCount */\n      sload(0x05)\n        /* \"Donation.sol\":2607:2621  approversCount */\n      sload(0x06)\n        /* \"Donation.sol\":2635:2656  address(this).balance */\n      selfbalance\n        /* \"Donation.sol\":2479:2666  return (... */\n      dup6\n      dup1\n      sload\n      tag_80\n      swap1\n      tag_81\n      jump\t// in\n    tag_80:\n      dup1\n      0x1f\n      add\n      0x20\n      dup1\n      swap2\n      div\n      mul\n      0x20\n      add\n      mload(0x40)\n      swap1\n      dup2\n      add\n      0x40\n      mstore\n      dup1\n      swap3\n      swap2\n      swap1\n      dup2\n      dup2\n      mstore\n      0x20\n      add\n      dup3\n      dup1\n      sload\n      tag_82\n      swap1\n      tag_81\n      jump\t// in\n    tag_82:\n      dup1\n      iszero\n      tag_83\n      jumpi\n      dup1\n      0x1f\n      lt\n      tag_84\n      jumpi\n      0x0100\n      dup1\n      dup4\n      sload\n      div\n      mul\n      dup4\n      mstore\n      swap2\n      0x20\n      add\n      swap2\n      jump(tag_83)\n    tag_84:\n      dup3\n      add\n      swap2\n      swap1\n      0x00\n      mstore\n      keccak256(0x00, 0x20)\n      swap1\n    tag_85:\n      dup2\n      sload\n      dup2\n      mstore\n      swap1\n      0x01\n      add\n      swap1\n      0x20\n      add\n      dup1\n      dup4\n      gt\n      tag_85\n      jumpi\n      dup3\n      swap1\n      sub\n      0x1f\n      and\n      dup3\n      add\n      swap2\n    tag_83:\n      pop\n      pop\n      pop\n      pop\n      pop\n      swap6\n      pop\n      swap6\n      pop\n      swap6\n      pop\n      swap6\n      pop\n      swap6\n      pop\n      swap6\n      pop\n      swap6\n      pop\n        /* \"Donation.sol\":2365:2673  function getDetail() public view returns (... */\n      swap1\n      swap2\n      swap3\n      swap4\n      swap5\n      swap6\n      jump\t// out\n        /* \"Donation.sol\":738:764  string public contractName */\n    tag_36:\n      0x02\n      dup1\n      sload\n      tag_86\n      swap1\n      tag_81\n      jump\t// in\n    tag_86:\n      dup1\n      0x1f\n      add\n      0x20\n      dup1\n      swap2\n      div\n      mul\n      0x20\n      add\n      mload(0x40)\n      swap1\n      dup2\n      add\n      0x40\n      mstore\n      dup1\n      swap3\n      swap2\n      swap1\n      dup2\n      dup2\n      mstore\n      0x20\n      add\n      dup3\n      dup1\n      sload\n      tag_87\n      swap1\n      tag_81\n      jump\t// in\n    tag_87:\n      dup1\n      iszero\n      tag_88\n      jumpi\n      dup1\n      0x1f\n      lt\n      tag_89\n      jumpi\n      0x0100\n      dup1\n      dup4\n      sload\n      div\n      mul\n      dup4\n      mstore\n      swap2\n      0x20\n      add\n      swap2\n      jump(tag_88)\n    tag_89:\n      dup3\n      add\n      swap2\n      swap1\n      0x00\n      mstore\n      keccak256(0x00, 0x20)\n      swap1\n    tag_90:\n      dup2\n      sload\n      dup2\n      mstore\n      swap1\n      0x01\n      add\n      swap1\n      0x20\n      add\n      dup1\n      dup4\n      gt\n      tag_90\n      jumpi\n      dup3\n      swap1\n      sub\n      0x1f\n      and\n      dup3\n      add\n      swap2\n    tag_88:\n      pop\n      pop\n      pop\n      pop\n      pop\n      dup2\n      jump\t// out\n        /* \"Donation.sol\":818:858  mapping(uint => Request) public requests */\n    tag_43:\n      mstore(0x20, 0x04)\n      dup1\n      0x00\n      mstore\n      keccak256(0x00, 0x40)\n      0x00\n      swap2\n      pop\n      swap1\n      pop\n      dup1\n      0x00\n      add\n      dup1\n      sload\n      tag_91\n      swap1\n      tag_81\n      jump\t// in\n    tag_91:\n      dup1\n      0x1f\n      add\n      0x20\n      dup1\n      swap2\n      div\n      mul\n      0x20\n      add\n      mload(0x40)\n      swap1\n      dup2\n      add\n      0x40\n      mstore\n      dup1\n      swap3\n      swap2\n      swap1\n      dup2\n      dup2\n      mstore\n      0x20\n      add\n      dup3\n      dup1\n      sload\n      tag_92\n      swap1\n      tag_81\n      jump\t// in\n    tag_92:\n      dup1\n      iszero\n      tag_93\n      jumpi\n      dup1\n      0x1f\n      lt\n      tag_94\n      jumpi\n      0x0100\n      dup1\n      dup4\n      sload\n      div\n      mul\n      dup4\n      mstore\n      swap2\n      0x20\n      add\n      swap2\n      jump(tag_93)\n    tag_94:\n      dup3\n      add\n      swap2\n      swap1\n      0x00\n      mstore\n      keccak256(0x00, 0x20)\n      swap1\n    tag_95:\n      dup2\n      sload\n      dup2\n      mstore\n      swap1\n      0x01\n      add\n      swap1\n      0x20\n      add\n      dup1\n      dup4\n      gt\n      tag_95\n      jumpi\n      dup3\n      swap1\n      sub\n      0x1f\n      and\n      dup3\n      add\n      swap2\n    tag_93:\n      pop\n      pop\n      pop\n      pop\n      pop\n      swap1\n      dup1\n      0x01\n      add\n      sload\n      swap1\n      dup1\n      0x02\n      add\n      0x00\n      swap1\n      sload\n      swap1\n      0x0100\n      exp\n      swap1\n      div\n      0xffffffffffffffffffffffffffffffffffffffff\n      and\n      swap1\n      dup1\n      0x02\n      add\n      0x14\n      swap1\n      sload\n      swap1\n      0x0100\n      exp\n      swap1\n      div\n      0xff\n      and\n      swap1\n      dup1\n      0x03\n      add\n      sload\n      swap1\n      pop\n      dup6\n      jump\t// out\n        /* \"Donation.sol\":895:921  uint public approversCount */\n    tag_48:\n      sload(0x06)\n      dup2\n      jump\t// out\n        /* \"Donation.sol\":1455:1774  function createRequest(string memory description, uint value, address recipient) public isManager {... */\n    tag_55:\n        /* \"Donation.sol\":981:988  manager */\n      0x00\n      dup1\n      sload\n      swap1\n      0x0100\n      exp\n      swap1\n      div\n      0xffffffffffffffffffffffffffffffffffffffff\n      and\n        /* \"Donation.sol\":967:988  msg.sender == manager */\n      0xffffffffffffffffffffffffffffffffffffffff\n      and\n        /* \"Donation.sol\":967:977  msg.sender */\n      caller\n        /* \"Donation.sol\":967:988  msg.sender == manager */\n      0xffffffffffffffffffffffffffffffffffffffff\n      and\n      eq\n        /* \"Donation.sol\":959:989  require(msg.sender == manager) */\n      tag_97\n      jumpi\n      0x00\n      dup1\n      revert\n    tag_97:\n        /* \"Donation.sol\":1563:1581  Request storage rq */\n      0x00\n        /* \"Donation.sol\":1584:1592  requests */\n      0x04\n        /* \"Donation.sol\":1584:1609  requests[requestsCount++] */\n      0x00\n        /* \"Donation.sol\":1593:1606  requestsCount */\n      0x05\n      0x00\n        /* \"Donation.sol\":1593:1608  requestsCount++ */\n      dup2\n      sload\n      dup1\n      swap3\n      swap2\n      swap1\n      tag_99\n      swap1\n      tag_100\n      jump\t// in\n    tag_99:\n      swap2\n      swap1\n      pop\n      sstore\n        /* \"Donation.sol\":1584:1609  requests[requestsCount++] */\n      dup2\n      mstore\n      0x20\n      add\n      swap1\n      dup2\n      mstore\n      0x20\n      add\n      0x00\n      keccak256\n        /* \"Donation.sol\":1563:1609  Request storage rq = requests[requestsCount++] */\n      swap1\n      pop\n        /* \"Donation.sol\":1636:1647  description */\n      dup4\n        /* \"Donation.sol\":1619:1621  rq */\n      dup2\n        /* \"Donation.sol\":1619:1633  rq.description */\n      0x00\n      add\n        /* \"Donation.sol\":1619:1647  rq.description = description */\n      swap1\n      dup1\n      mload\n      swap1\n      0x20\n      add\n      swap1\n      tag_101\n      swap3\n      swap2\n      swap1\n      tag_102\n      jump\t// in\n    tag_101:\n      pop\n        /* \"Donation.sol\":1668:1673  value */\n      dup3\n        /* \"Donation.sol\":1657:1659  rq */\n      dup2\n        /* \"Donation.sol\":1657:1665  rq.value */\n      0x01\n      add\n        /* \"Donation.sol\":1657:1673  rq.value = value */\n      dup2\n      swap1\n      sstore\n      pop\n        /* \"Donation.sol\":1698:1707  recipient */\n      dup2\n        /* \"Donation.sol\":1683:1685  rq */\n      dup2\n        /* \"Donation.sol\":1683:1695  rq.recipient */\n      0x02\n      add\n      0x00\n        /* \"Donation.sol\":1683:1707  rq.recipient = recipient */\n      0x0100\n      exp\n      dup2\n      sload\n      dup2\n      0xffffffffffffffffffffffffffffffffffffffff\n      mul\n      not\n      and\n      swap1\n      dup4\n      0xffffffffffffffffffffffffffffffffffffffff\n      and\n      mul\n      or\n      swap1\n      sstore\n      pop\n        /* \"Donation.sol\":1731:1736  false */\n      0x00\n        /* \"Donation.sol\":1717:1719  rq */\n      dup2\n        /* \"Donation.sol\":1717:1728  rq.complete */\n      0x02\n      add\n      0x14\n        /* \"Donation.sol\":1717:1736  rq.complete = false */\n      0x0100\n      exp\n      dup2\n      sload\n      dup2\n      0xff\n      mul\n      not\n      and\n      swap1\n      dup4\n      iszero\n      iszero\n      mul\n      or\n      swap1\n      sstore\n      pop\n        /* \"Donation.sol\":1766:1767  0 */\n      0x00\n        /* \"Donation.sol\":1746:1748  rq */\n      dup2\n        /* \"Donation.sol\":1746:1763  rq.approvalsCount */\n      0x03\n      add\n        /* \"Donation.sol\":1746:1767  rq.approvalsCount = 0 */\n      dup2\n      swap1\n      sstore\n      pop\n        /* \"Donation.sol\":1553:1774  {... */\n      pop\n        /* \"Donation.sol\":1455:1774  function createRequest(string memory description, uint value, address recipient) public isManager {... */\n      pop\n      pop\n      pop\n      jump\t// out\n        /* \"Donation.sol\":701:732  uint public minimumContribution */\n    tag_58:\n      sload(0x01)\n      dup2\n      jump\t// out\n        /* \"Donation.sol\":2056:2359  function finishRequest(uint index) public isManager {... */\n    tag_63:\n        /* \"Donation.sol\":981:988  manager */\n      0x00\n      dup1\n      sload\n      swap1\n      0x0100\n      exp\n      swap1\n      div\n      0xffffffffffffffffffffffffffffffffffffffff\n      and\n        /* \"Donation.sol\":967:988  msg.sender == manager */\n      0xffffffffffffffffffffffffffffffffffffffff\n      and\n        /* \"Donation.sol\":967:977  msg.sender */\n      caller\n        /* \"Donation.sol\":967:988  msg.sender == manager */\n      0xffffffffffffffffffffffffffffffffffffffff\n      and\n      eq\n        /* \"Donation.sol\":959:989  require(msg.sender == manager) */\n      tag_104\n      jumpi\n      0x00\n      dup1\n      revert\n    tag_104:\n        /* \"Donation.sol\":2118:2141  Request storage request */\n      0x00\n        /* \"Donation.sol\":2144:2152  requests */\n      0x04\n        /* \"Donation.sol\":2144:2159  requests[index] */\n      0x00\n        /* \"Donation.sol\":2153:2158  index */\n      dup4\n        /* \"Donation.sol\":2144:2159  requests[index] */\n      dup2\n      mstore\n      0x20\n      add\n      swap1\n      dup2\n      mstore\n      0x20\n      add\n      0x00\n      keccak256\n        /* \"Donation.sol\":2118:2159  Request storage request = requests[index] */\n      swap1\n      pop\n        /* \"Donation.sol\":2220:2221  2 */\n      0x02\n        /* \"Donation.sol\":2203:2217  approversCount */\n      sload(0x06)\n        /* \"Donation.sol\":2203:2221  approversCount / 2 */\n      tag_106\n      swap2\n      swap1\n      tag_107\n      jump\t// in\n    tag_106:\n        /* \"Donation.sol\":2177:2184  request */\n      dup2\n        /* \"Donation.sol\":2177:2199  request.approvalsCount */\n      0x03\n      add\n      sload\n        /* \"Donation.sol\":2177:2222  request.approvalsCount > (approversCount / 2) */\n      gt\n        /* \"Donation.sol\":2169:2223  require(request.approvalsCount > (approversCount / 2)) */\n      tag_108\n      jumpi\n      0x00\n      dup1\n      revert\n    tag_108:\n        /* \"Donation.sol\":2242:2249  request */\n      dup1\n        /* \"Donation.sol\":2242:2258  request.complete */\n      0x02\n      add\n      0x14\n      swap1\n      sload\n      swap1\n      0x0100\n      exp\n      swap1\n      div\n      0xff\n      and\n        /* \"Donation.sol\":2241:2258  !request.complete */\n      iszero\n        /* \"Donation.sol\":2233:2259  require(!request.complete) */\n      tag_109\n      jumpi\n      0x00\n      dup1\n      revert\n    tag_109:\n        /* \"Donation.sol\":2277:2284  request */\n      dup1\n        /* \"Donation.sol\":2277:2294  request.recipient */\n      0x02\n      add\n      0x00\n      swap1\n      sload\n      swap1\n      0x0100\n      exp\n      swap1\n      div\n      0xffffffffffffffffffffffffffffffffffffffff\n      and\n        /* \"Donation.sol\":2269:2304  payable(request.recipient).transfer */\n      0xffffffffffffffffffffffffffffffffffffffff\n      and\n        /* \"Donation.sol\":2269:2319  payable(request.recipient).transfer(request.value) */\n      0x08fc\n        /* \"Donation.sol\":2305:2312  request */\n      dup3\n        /* \"Donation.sol\":2305:2318  request.value */\n      0x01\n      add\n      sload\n        /* \"Donation.sol\":2269:2319  payable(request.recipient).transfer(request.value) */\n      swap1\n      dup2\n      iszero\n      mul\n      swap1\n      mload(0x40)\n      0x00\n      mload(0x40)\n      dup1\n      dup4\n      sub\n      dup2\n      dup6\n      dup9\n      dup9\n      call\n      swap4\n      pop\n      pop\n      pop\n      pop\n      iszero\n      dup1\n      iszero\n      tag_111\n      jumpi\n      returndatasize\n      0x00\n      dup1\n      returndatacopy\n      revert(0x00, returndatasize)\n    tag_111:\n      pop\n        /* \"Donation.sol\":2348:2352  true */\n      0x01\n        /* \"Donation.sol\":2329:2336  request */\n      dup2\n        /* \"Donation.sol\":2329:2345  request.complete */\n      0x02\n      add\n      0x14\n        /* \"Donation.sol\":2329:2352  request.complete = true */\n      0x0100\n      exp\n      dup2\n      sload\n      dup2\n      0xff\n      mul\n      not\n      and\n      swap1\n      dup4\n      iszero\n      iszero\n      mul\n      or\n      swap1\n      sstore\n      pop\n        /* \"Donation.sol\":2108:2359  {... */\n      pop\n        /* \"Donation.sol\":2056:2359  function finishRequest(uint index) public isManager {... */\n      pop\n      jump\t// out\n        /* \"Donation.sol\":1184:1285  function updateContractName(string memory name) public isManager {... */\n    tag_68:\n        /* \"Donation.sol\":981:988  manager */\n      0x00\n      dup1\n      sload\n      swap1\n      0x0100\n      exp\n      swap1\n      div\n      0xffffffffffffffffffffffffffffffffffffffff\n      and\n        /* \"Donation.sol\":967:988  msg.sender == manager */\n      0xffffffffffffffffffffffffffffffffffffffff\n      and\n        /* \"Donation.sol\":967:977  msg.sender */\n      caller\n        /* \"Donation.sol\":967:988  msg.sender == manager */\n      0xffffffffffffffffffffffffffffffffffffffff\n      and\n      eq\n        /* \"Donation.sol\":959:989  require(msg.sender == manager) */\n      tag_113\n      jumpi\n      0x00\n      dup1\n      revert\n    tag_113:\n        /* \"Donation.sol\":1274:1278  name */\n      dup1\n        /* \"Donation.sol\":1259:1271  contractName */\n      0x02\n        /* \"Donation.sol\":1259:1278  contractName = name */\n      swap1\n      dup1\n      mload\n      swap1\n      0x20\n      add\n      swap1\n      tag_115\n      swap3\n      swap2\n      swap1\n      tag_102\n      jump\t// in\n    tag_115:\n      pop\n        /* \"Donation.sol\":1184:1285  function updateContractName(string memory name) public isManager {... */\n      pop\n      jump\t// out\n        /* \"Donation.sol\":1291:1449  function contribute() public payable {... */\n    tag_70:\n        /* \"Donation.sol\":1358:1377  minimumContribution */\n      sload(0x01)\n        /* \"Donation.sol\":1346:1355  msg.value */\n      callvalue\n        /* \"Donation.sol\":1346:1377  msg.value > minimumContribution */\n      gt\n        /* \"Donation.sol\":1338:1378  require(msg.value > minimumContribution) */\n      tag_117\n      jumpi\n      0x00\n      dup1\n      revert\n    tag_117:\n        /* \"Donation.sol\":1412:1416  true */\n      0x01\n        /* \"Donation.sol\":1388:1397  approvers */\n      0x03\n        /* \"Donation.sol\":1388:1409  approvers[msg.sender] */\n      0x00\n        /* \"Donation.sol\":1398:1408  msg.sender */\n      caller\n        /* \"Donation.sol\":1388:1409  approvers[msg.sender] */\n      0xffffffffffffffffffffffffffffffffffffffff\n      and\n      0xffffffffffffffffffffffffffffffffffffffff\n      and\n      dup2\n      mstore\n      0x20\n      add\n      swap1\n      dup2\n      mstore\n      0x20\n      add\n      0x00\n      keccak256\n      0x00\n        /* \"Donation.sol\":1388:1416  approvers[msg.sender] = true */\n      0x0100\n      exp\n      dup2\n      sload\n      dup2\n      0xff\n      mul\n      not\n      and\n      swap1\n      dup4\n      iszero\n      iszero\n      mul\n      or\n      swap1\n      sstore\n      pop\n        /* \"Donation.sol\":1426:1440  approversCount */\n      0x06\n      0x00\n        /* \"Donation.sol\":1426:1442  approversCount++ */\n      dup2\n      sload\n      dup1\n      swap3\n      swap2\n      swap1\n      tag_118\n      swap1\n      tag_100\n      jump\t// in\n    tag_118:\n      swap2\n      swap1\n      pop\n      sstore\n      pop\n        /* \"Donation.sol\":1291:1449  function contribute() public payable {... */\n      jump\t// out\n        /* \"Donation.sol\":1780:2050  function approveRequest(uint index) public {... */\n    tag_74:\n        /* \"Donation.sol\":1833:1856  Request storage request */\n      0x00\n        /* \"Donation.sol\":1859:1867  requests */\n      0x04\n        /* \"Donation.sol\":1859:1874  requests[index] */\n      0x00\n        /* \"Donation.sol\":1868:1873  index */\n      dup4\n        /* \"Donation.sol\":1859:1874  requests[index] */\n      dup2\n      mstore\n      0x20\n      add\n      swap1\n      dup2\n      mstore\n      0x20\n      add\n      0x00\n      keccak256\n        /* \"Donation.sol\":1833:1874  Request storage request = requests[index] */\n      swap1\n      pop\n        /* \"Donation.sol\":1892:1901  approvers */\n      0x03\n        /* \"Donation.sol\":1892:1913  approvers[msg.sender] */\n      0x00\n        /* \"Donation.sol\":1902:1912  msg.sender */\n      caller\n        /* \"Donation.sol\":1892:1913  approvers[msg.sender] */\n      0xffffffffffffffffffffffffffffffffffffffff\n      and\n      0xffffffffffffffffffffffffffffffffffffffff\n      and\n      dup2\n      mstore\n      0x20\n      add\n      swap1\n      dup2\n      mstore\n      0x20\n      add\n      0x00\n      keccak256\n      0x00\n      swap1\n      sload\n      swap1\n      0x0100\n      exp\n      swap1\n      div\n      0xff\n      and\n        /* \"Donation.sol\":1884:1914  require(approvers[msg.sender]) */\n      tag_120\n      jumpi\n      0x00\n      dup1\n      revert\n    tag_120:\n        /* \"Donation.sol\":1933:1940  request */\n      dup1\n        /* \"Donation.sol\":1933:1950  request.approvals */\n      0x04\n      add\n        /* \"Donation.sol\":1933:1962  request.approvals[msg.sender] */\n      0x00\n        /* \"Donation.sol\":1951:1961  msg.sender */\n      caller\n        /* \"Donation.sol\":1933:1962  request.approvals[msg.sender] */\n      0xffffffffffffffffffffffffffffffffffffffff\n      and\n      0xffffffffffffffffffffffffffffffffffffffff\n      and\n      dup2\n      mstore\n      0x20\n      add\n      swap1\n      dup2\n      mstore\n      0x20\n      add\n      0x00\n      keccak256\n      0x00\n      swap1\n      sload\n      swap1\n      0x0100\n      exp\n      swap1\n      div\n      0xff\n      and\n        /* \"Donation.sol\":1932:1962  !request.approvals[msg.sender] */\n      iszero\n        /* \"Donation.sol\":1924:1963  require(!request.approvals[msg.sender]) */\n      tag_121\n      jumpi\n      0x00\n      dup1\n      revert\n    tag_121:\n        /* \"Donation.sol\":2005:2009  true */\n      0x01\n        /* \"Donation.sol\":1973:1980  request */\n      dup2\n        /* \"Donation.sol\":1973:1990  request.approvals */\n      0x04\n      add\n        /* \"Donation.sol\":1973:2002  request.approvals[msg.sender] */\n      0x00\n        /* \"Donation.sol\":1991:2001  msg.sender */\n      caller\n        /* \"Donation.sol\":1973:2002  request.approvals[msg.sender] */\n      0xffffffffffffffffffffffffffffffffffffffff\n      and\n      0xffffffffffffffffffffffffffffffffffffffff\n      and\n      dup2\n      mstore\n      0x20\n      add\n      swap1\n      dup2\n      mstore\n      0x20\n      add\n      0x00\n      keccak256\n      0x00\n        /* \"Donation.sol\":1973:2009  request.approvals[msg.sender] = true */\n      0x0100\n      exp\n      dup2\n      sload\n      dup2\n      0xff\n      mul\n      not\n      and\n      swap1\n      dup4\n      iszero\n      iszero\n      mul\n      or\n      swap1\n      sstore\n      pop\n        /* \"Donation.sol\":2019:2026  request */\n      dup1\n        /* \"Donation.sol\":2019:2041  request.approvalsCount */\n      0x03\n      add\n      0x00\n        /* \"Donation.sol\":2019:2043  request.approvalsCount++ */\n      dup2\n      sload\n      dup1\n      swap3\n      swap2\n      swap1\n      tag_122\n      swap1\n      tag_100\n      jump\t// in\n    tag_122:\n      swap2\n      swap1\n      pop\n      sstore\n      pop\n        /* \"Donation.sol\":1823:2050  {... */\n      pop\n        /* \"Donation.sol\":1780:2050  function approveRequest(uint index) public {... */\n      pop\n      jump\t// out\n        /* \"Donation.sol\":864:889  uint public requestsCount */\n    tag_77:\n      sload(0x05)\n      dup2\n      jump\t// out\n    tag_102:\n      dup3\n      dup1\n      sload\n      tag_123\n      swap1\n      tag_81\n      jump\t// in\n    tag_123:\n      swap1\n      0x00\n      mstore\n      keccak256(0x00, 0x20)\n      swap1\n      0x1f\n      add\n      0x20\n      swap1\n      div\n      dup2\n      add\n      swap3\n      dup3\n      tag_125\n      jumpi\n      0x00\n      dup6\n      sstore\n      jump(tag_124)\n    tag_125:\n      dup3\n      0x1f\n      lt\n      tag_126\n      jumpi\n      dup1\n      mload\n      not(0xff)\n      and\n      dup4\n      dup1\n      add\n      or\n      dup6\n      sstore\n      jump(tag_124)\n    tag_126:\n      dup3\n      dup1\n      add\n      0x01\n      add\n      dup6\n      sstore\n      dup3\n      iszero\n      tag_124\n      jumpi\n      swap2\n      dup3\n      add\n    tag_127:\n      dup3\n      dup2\n      gt\n      iszero\n      tag_128\n      jumpi\n      dup3\n      mload\n      dup3\n      sstore\n      swap2\n      0x20\n      add\n      swap2\n      swap1\n      0x01\n      add\n      swap1\n      jump(tag_127)\n    tag_128:\n    tag_124:\n      pop\n      swap1\n      pop\n      tag_129\n      swap2\n      swap1\n      tag_130\n      jump\t// in\n    tag_129:\n      pop\n      swap1\n      jump\t// out\n    tag_130:\n    tag_131:\n      dup1\n      dup3\n      gt\n      iszero\n      tag_132\n      jumpi\n      0x00\n      dup2\n      0x00\n      swap1\n      sstore\n      pop\n      0x01\n      add\n      jump(tag_131)\n    tag_132:\n      pop\n      swap1\n      jump\t// out\n        /* \"#utility.yul\":7:82   */\n    tag_133:\n        /* \"#utility.yul\":40:46   */\n      0x00\n        /* \"#utility.yul\":73:75   */\n      0x40\n        /* \"#utility.yul\":67:76   */\n      mload\n        /* \"#utility.yul\":57:76   */\n      swap1\n      pop\n        /* \"#utility.yul\":7:82   */\n      swap1\n      jump\t// out\n        /* \"#utility.yul\":88:205   */\n    tag_134:\n        /* \"#utility.yul\":197:198   */\n      0x00\n        /* \"#utility.yul\":194:195   */\n      dup1\n        /* \"#utility.yul\":187:199   */\n      revert\n        /* \"#utility.yul\":211:328   */\n    tag_135:\n        /* \"#utility.yul\":320:321   */\n      0x00\n        /* \"#utility.yul\":317:318   */\n      dup1\n        /* \"#utility.yul\":310:322   */\n      revert\n        /* \"#utility.yul\":334:460   */\n    tag_136:\n        /* \"#utility.yul\":371:378   */\n      0x00\n        /* \"#utility.yul\":411:453   */\n      0xffffffffffffffffffffffffffffffffffffffff\n        /* \"#utility.yul\":404:409   */\n      dup3\n        /* \"#utility.yul\":400:454   */\n      and\n        /* \"#utility.yul\":389:454   */\n      swap1\n      pop\n        /* \"#utility.yul\":334:460   */\n      swap2\n      swap1\n      pop\n      jump\t// out\n        /* \"#utility.yul\":466:562   */\n    tag_137:\n        /* \"#utility.yul\":503:510   */\n      0x00\n        /* \"#utility.yul\":532:556   */\n      tag_170\n        /* \"#utility.yul\":550:555   */\n      dup3\n        /* \"#utility.yul\":532:556   */\n      tag_136\n      jump\t// in\n    tag_170:\n        /* \"#utility.yul\":521:556   */\n      swap1\n      pop\n        /* \"#utility.yul\":466:562   */\n      swap2\n      swap1\n      pop\n      jump\t// out\n        /* \"#utility.yul\":568:690   */\n    tag_138:\n        /* \"#utility.yul\":641:665   */\n      tag_172\n        /* \"#utility.yul\":659:664   */\n      dup2\n        /* \"#utility.yul\":641:665   */\n      tag_137\n      jump\t// in\n    tag_172:\n        /* \"#utility.yul\":634:639   */\n      dup2\n        /* \"#utility.yul\":631:666   */\n      eq\n        /* \"#utility.yul\":621:684   */\n      tag_173\n      jumpi\n        /* \"#utility.yul\":680:681   */\n      0x00\n        /* \"#utility.yul\":677:678   */\n      dup1\n        /* \"#utility.yul\":670:682   */\n      revert\n        /* \"#utility.yul\":621:684   */\n    tag_173:\n        /* \"#utility.yul\":568:690   */\n      pop\n      jump\t// out\n        /* \"#utility.yul\":696:835   */\n    tag_139:\n        /* \"#utility.yul\":742:747   */\n      0x00\n        /* \"#utility.yul\":780:786   */\n      dup2\n        /* \"#utility.yul\":767:787   */\n      calldataload\n        /* \"#utility.yul\":758:787   */\n      swap1\n      pop\n        /* \"#utility.yul\":796:829   */\n      tag_175\n        /* \"#utility.yul\":823:828   */\n      dup2\n        /* \"#utility.yul\":796:829   */\n      tag_138\n      jump\t// in\n    tag_175:\n        /* \"#utility.yul\":696:835   */\n      swap3\n      swap2\n      pop\n      pop\n      jump\t// out\n        /* \"#utility.yul\":841:1170   */\n    tag_20:\n        /* \"#utility.yul\":900:906   */\n      0x00\n        /* \"#utility.yul\":949:951   */\n      0x20\n        /* \"#utility.yul\":937:946   */\n      dup3\n        /* \"#utility.yul\":928:935   */\n      dup5\n        /* \"#utility.yul\":924:947   */\n      sub\n        /* \"#utility.yul\":920:952   */\n      slt\n        /* \"#utility.yul\":917:1036   */\n      iszero\n      tag_177\n      jumpi\n        /* \"#utility.yul\":955:1034   */\n      tag_178\n      tag_134\n      jump\t// in\n    tag_178:\n        /* \"#utility.yul\":917:1036   */\n    tag_177:\n        /* \"#utility.yul\":1075:1076   */\n      0x00\n        /* \"#utility.yul\":1100:1153   */\n      tag_179\n        /* \"#utility.yul\":1145:1152   */\n      dup5\n        /* \"#utility.yul\":1136:1142   */\n      dup3\n        /* \"#utility.yul\":1125:1134   */\n      dup6\n        /* \"#utility.yul\":1121:1143   */\n      add\n        /* \"#utility.yul\":1100:1153   */\n      tag_139\n      jump\t// in\n    tag_179:\n        /* \"#utility.yul\":1090:1153   */\n      swap2\n      pop\n        /* \"#utility.yul\":1046:1163   */\n      pop\n        /* \"#utility.yul\":841:1170   */\n      swap3\n      swap2\n      pop\n      pop\n      jump\t// out\n        /* \"#utility.yul\":1176:1266   */\n    tag_140:\n        /* \"#utility.yul\":1210:1217   */\n      0x00\n        /* \"#utility.yul\":1253:1258   */\n      dup2\n        /* \"#utility.yul\":1246:1259   */\n      iszero\n        /* \"#utility.yul\":1239:1260   */\n      iszero\n        /* \"#utility.yul\":1228:1260   */\n      swap1\n      pop\n        /* \"#utility.yul\":1176:1266   */\n      swap2\n      swap1\n      pop\n      jump\t// out\n        /* \"#utility.yul\":1272:1381   */\n    tag_141:\n        /* \"#utility.yul\":1353:1374   */\n      tag_182\n        /* \"#utility.yul\":1368:1373   */\n      dup2\n        /* \"#utility.yul\":1353:1374   */\n      tag_140\n      jump\t// in\n    tag_182:\n        /* \"#utility.yul\":1348:1351   */\n      dup3\n        /* \"#utility.yul\":1341:1375   */\n      mstore\n        /* \"#utility.yul\":1272:1381   */\n      pop\n      pop\n      jump\t// out\n        /* \"#utility.yul\":1387:1597   */\n    tag_23:\n        /* \"#utility.yul\":1474:1478   */\n      0x00\n        /* \"#utility.yul\":1512:1514   */\n      0x20\n        /* \"#utility.yul\":1501:1510   */\n      dup3\n        /* \"#utility.yul\":1497:1515   */\n      add\n        /* \"#utility.yul\":1489:1515   */\n      swap1\n      pop\n        /* \"#utility.yul\":1525:1590   */\n      tag_184\n        /* \"#utility.yul\":1587:1588   */\n      0x00\n        /* \"#utility.yul\":1576:1585   */\n      dup4\n        /* \"#utility.yul\":1572:1589   */\n      add\n        /* \"#utility.yul\":1563:1569   */\n      dup5\n        /* \"#utility.yul\":1525:1590   */\n      tag_141\n      jump\t// in\n    tag_184:\n        /* \"#utility.yul\":1387:1597   */\n      swap3\n      swap2\n      pop\n      pop\n      jump\t// out\n        /* \"#utility.yul\":1603:1721   */\n    tag_142:\n        /* \"#utility.yul\":1690:1714   */\n      tag_186\n        /* \"#utility.yul\":1708:1713   */\n      dup2\n        /* \"#utility.yul\":1690:1714   */\n      tag_137\n      jump\t// in\n    tag_186:\n        /* \"#utility.yul\":1685:1688   */\n      dup3\n        /* \"#utility.yul\":1678:1715   */\n      mstore\n        /* \"#utility.yul\":1603:1721   */\n      pop\n      pop\n      jump\t// out\n        /* \"#utility.yul\":1727:1949   */\n    tag_28:\n        /* \"#utility.yul\":1820:1824   */\n      0x00\n        /* \"#utility.yul\":1858:1860   */\n      0x20\n        /* \"#utility.yul\":1847:1856   */\n      dup3\n        /* \"#utility.yul\":1843:1861   */\n      add\n        /* \"#utility.yul\":1835:1861   */\n      swap1\n      pop\n        /* \"#utility.yul\":1871:1942   */\n      tag_188\n        /* \"#utility.yul\":1939:1940   */\n      0x00\n        /* \"#utility.yul\":1928:1937   */\n      dup4\n        /* \"#utility.yul\":1924:1941   */\n      add\n        /* \"#utility.yul\":1915:1921   */\n      dup5\n        /* \"#utility.yul\":1871:1942   */\n      tag_142\n      jump\t// in\n    tag_188:\n        /* \"#utility.yul\":1727:1949   */\n      swap3\n      swap2\n      pop\n      pop\n      jump\t// out\n        /* \"#utility.yul\":1955:2054   */\n    tag_143:\n        /* \"#utility.yul\":2007:2013   */\n      0x00\n        /* \"#utility.yul\":2041:2046   */\n      dup2\n        /* \"#utility.yul\":2035:2047   */\n      mload\n        /* \"#utility.yul\":2025:2047   */\n      swap1\n      pop\n        /* \"#utility.yul\":1955:2054   */\n      swap2\n      swap1\n      pop\n      jump\t// out\n        /* \"#utility.yul\":2060:2229   */\n    tag_144:\n        /* \"#utility.yul\":2144:2155   */\n      0x00\n        /* \"#utility.yul\":2178:2184   */\n      dup3\n        /* \"#utility.yul\":2173:2176   */\n      dup3\n        /* \"#utility.yul\":2166:2185   */\n      mstore\n        /* \"#utility.yul\":2218:2222   */\n      0x20\n        /* \"#utility.yul\":2213:2216   */\n      dup3\n        /* \"#utility.yul\":2209:2223   */\n      add\n        /* \"#utility.yul\":2194:2223   */\n      swap1\n      pop\n        /* \"#utility.yul\":2060:2229   */\n      swap3\n      swap2\n      pop\n      pop\n      jump\t// out\n        /* \"#utility.yul\":2235:2542   */\n    tag_145:\n        /* \"#utility.yul\":2303:2304   */\n      0x00\n        /* \"#utility.yul\":2313:2426   */\n    tag_192:\n        /* \"#utility.yul\":2327:2333   */\n      dup4\n        /* \"#utility.yul\":2324:2325   */\n      dup2\n        /* \"#utility.yul\":2321:2334   */\n      lt\n        /* \"#utility.yul\":2313:2426   */\n      iszero\n      tag_194\n      jumpi\n        /* \"#utility.yul\":2412:2413   */\n      dup1\n        /* \"#utility.yul\":2407:2410   */\n      dup3\n        /* \"#utility.yul\":2403:2414   */\n      add\n        /* \"#utility.yul\":2397:2415   */\n      mload\n        /* \"#utility.yul\":2393:2394   */\n      dup2\n        /* \"#utility.yul\":2388:2391   */\n      dup5\n        /* \"#utility.yul\":2384:2395   */\n      add\n        /* \"#utility.yul\":2377:2416   */\n      mstore\n        /* \"#utility.yul\":2349:2351   */\n      0x20\n        /* \"#utility.yul\":2346:2347   */\n      dup2\n        /* \"#utility.yul\":2342:2352   */\n      add\n        /* \"#utility.yul\":2337:2352   */\n      swap1\n      pop\n        /* \"#utility.yul\":2313:2426   */\n      jump(tag_192)\n    tag_194:\n        /* \"#utility.yul\":2444:2450   */\n      dup4\n        /* \"#utility.yul\":2441:2442   */\n      dup2\n        /* \"#utility.yul\":2438:2451   */\n      gt\n        /* \"#utility.yul\":2435:2536   */\n      iszero\n      tag_195\n      jumpi\n        /* \"#utility.yul\":2524:2525   */\n      0x00\n        /* \"#utility.yul\":2515:2521   */\n      dup5\n        /* \"#utility.yul\":2510:2513   */\n      dup5\n        /* \"#utility.yul\":2506:2522   */\n      add\n        /* \"#utility.yul\":2499:2526   */\n      mstore\n        /* \"#utility.yul\":2435:2536   */\n    tag_195:\n        /* \"#utility.yul\":2284:2542   */\n      pop\n        /* \"#utility.yul\":2235:2542   */\n      pop\n      pop\n      pop\n      jump\t// out\n        /* \"#utility.yul\":2548:2650   */\n    tag_146:\n        /* \"#utility.yul\":2589:2595   */\n      0x00\n        /* \"#utility.yul\":2640:2642   */\n      0x1f\n        /* \"#utility.yul\":2636:2643   */\n      not\n        /* \"#utility.yul\":2631:2633   */\n      0x1f\n        /* \"#utility.yul\":2624:2629   */\n      dup4\n        /* \"#utility.yul\":2620:2634   */\n      add\n        /* \"#utility.yul\":2616:2644   */\n      and\n        /* \"#utility.yul\":2606:2644   */\n      swap1\n      pop\n        /* \"#utility.yul\":2548:2650   */\n      swap2\n      swap1\n      pop\n      jump\t// out\n        /* \"#utility.yul\":2656:3020   */\n    tag_147:\n        /* \"#utility.yul\":2744:2747   */\n      0x00\n        /* \"#utility.yul\":2772:2811   */\n      tag_198\n        /* \"#utility.yul\":2805:2810   */\n      dup3\n        /* \"#utility.yul\":2772:2811   */\n      tag_143\n      jump\t// in\n    tag_198:\n        /* \"#utility.yul\":2827:2898   */\n      tag_199\n        /* \"#utility.yul\":2891:2897   */\n      dup2\n        /* \"#utility.yul\":2886:2889   */\n      dup6\n        /* \"#utility.yul\":2827:2898   */\n      tag_144\n      jump\t// in\n    tag_199:\n        /* \"#utility.yul\":2820:2898   */\n      swap4\n      pop\n        /* \"#utility.yul\":2907:2959   */\n      tag_200\n        /* \"#utility.yul\":2952:2958   */\n      dup2\n        /* \"#utility.yul\":2947:2950   */\n      dup6\n        /* \"#utility.yul\":2940:2944   */\n      0x20\n        /* \"#utility.yul\":2933:2938   */\n      dup7\n        /* \"#utility.yul\":2929:2945   */\n      add\n        /* \"#utility.yul\":2907:2959   */\n      tag_145\n      jump\t// in\n    tag_200:\n        /* \"#utility.yul\":2984:3013   */\n      tag_201\n        /* \"#utility.yul\":3006:3012   */\n      dup2\n        /* \"#utility.yul\":2984:3013   */\n      tag_146\n      jump\t// in\n    tag_201:\n        /* \"#utility.yul\":2979:2982   */\n      dup5\n        /* \"#utility.yul\":2975:3014   */\n      add\n        /* \"#utility.yul\":2968:3014   */\n      swap2\n      pop\n        /* \"#utility.yul\":2748:3020   */\n      pop\n        /* \"#utility.yul\":2656:3020   */\n      swap3\n      swap2\n      pop\n      pop\n      jump\t// out\n        /* \"#utility.yul\":3026:3103   */\n    tag_148:\n        /* \"#utility.yul\":3063:3070   */\n      0x00\n        /* \"#utility.yul\":3092:3097   */\n      dup2\n        /* \"#utility.yul\":3081:3097   */\n      swap1\n      pop\n        /* \"#utility.yul\":3026:3103   */\n      swap2\n      swap1\n      pop\n      jump\t// out\n        /* \"#utility.yul\":3109:3227   */\n    tag_149:\n        /* \"#utility.yul\":3196:3220   */\n      tag_204\n        /* \"#utility.yul\":3214:3219   */\n      dup2\n        /* \"#utility.yul\":3196:3220   */\n      tag_148\n      jump\t// in\n    tag_204:\n        /* \"#utility.yul\":3191:3194   */\n      dup3\n        /* \"#utility.yul\":3184:3221   */\n      mstore\n        /* \"#utility.yul\":3109:3227   */\n      pop\n      pop\n      jump\t// out\n        /* \"#utility.yul\":3233:4099   */\n    tag_33:\n        /* \"#utility.yul\":3486:3490   */\n      0x00\n        /* \"#utility.yul\":3524:3527   */\n      0xc0\n        /* \"#utility.yul\":3513:3522   */\n      dup3\n        /* \"#utility.yul\":3509:3528   */\n      add\n        /* \"#utility.yul\":3501:3528   */\n      swap1\n      pop\n        /* \"#utility.yul\":3574:3583   */\n      dup2\n        /* \"#utility.yul\":3568:3572   */\n      dup2\n        /* \"#utility.yul\":3564:3584   */\n      sub\n        /* \"#utility.yul\":3560:3561   */\n      0x00\n        /* \"#utility.yul\":3549:3558   */\n      dup4\n        /* \"#utility.yul\":3545:3562   */\n      add\n        /* \"#utility.yul\":3538:3585   */\n      mstore\n        /* \"#utility.yul\":3602:3680   */\n      tag_206\n        /* \"#utility.yul\":3675:3679   */\n      dup2\n        /* \"#utility.yul\":3666:3672   */\n      dup10\n        /* \"#utility.yul\":3602:3680   */\n      tag_147\n      jump\t// in\n    tag_206:\n        /* \"#utility.yul\":3594:3680   */\n      swap1\n      pop\n        /* \"#utility.yul\":3690:3762   */\n      tag_207\n        /* \"#utility.yul\":3758:3760   */\n      0x20\n        /* \"#utility.yul\":3747:3756   */\n      dup4\n        /* \"#utility.yul\":3743:3761   */\n      add\n        /* \"#utility.yul\":3734:3740   */\n      dup9\n        /* \"#utility.yul\":3690:3762   */\n      tag_142\n      jump\t// in\n    tag_207:\n        /* \"#utility.yul\":3772:3844   */\n      tag_208\n        /* \"#utility.yul\":3840:3842   */\n      0x40\n        /* \"#utility.yul\":3829:3838   */\n      dup4\n        /* \"#utility.yul\":3825:3843   */\n      add\n        /* \"#utility.yul\":3816:3822   */\n      dup8\n        /* \"#utility.yul\":3772:3844   */\n      tag_149\n      jump\t// in\n    tag_208:\n        /* \"#utility.yul\":3854:3926   */\n      tag_209\n        /* \"#utility.yul\":3922:3924   */\n      0x60\n        /* \"#utility.yul\":3911:3920   */\n      dup4\n        /* \"#utility.yul\":3907:3925   */\n      add\n        /* \"#utility.yul\":3898:3904   */\n      dup7\n        /* \"#utility.yul\":3854:3926   */\n      tag_149\n      jump\t// in\n    tag_209:\n        /* \"#utility.yul\":3936:4009   */\n      tag_210\n        /* \"#utility.yul\":4004:4007   */\n      0x80\n        /* \"#utility.yul\":3993:4002   */\n      dup4\n        /* \"#utility.yul\":3989:4008   */\n      add\n        /* \"#utility.yul\":3980:3986   */\n      dup6\n        /* \"#utility.yul\":3936:4009   */\n      tag_149\n      jump\t// in\n    tag_210:\n        /* \"#utility.yul\":4019:4092   */\n      tag_211\n        /* \"#utility.yul\":4087:4090   */\n      0xa0\n        /* \"#utility.yul\":4076:4085   */\n      dup4\n        /* \"#utility.yul\":4072:4091   */\n      add\n        /* \"#utility.yul\":4063:4069   */\n      dup5\n        /* \"#utility.yul\":4019:4092   */\n      tag_149\n      jump\t// in\n    tag_211:\n        /* \"#utility.yul\":3233:4099   */\n      swap8\n      swap7\n      pop\n      pop\n      pop\n      pop\n      pop\n      pop\n      pop\n      jump\t// out\n        /* \"#utility.yul\":4105:4418   */\n    tag_38:\n        /* \"#utility.yul\":4218:4222   */\n      0x00\n        /* \"#utility.yul\":4256:4258   */\n      0x20\n        /* \"#utility.yul\":4245:4254   */\n      dup3\n        /* \"#utility.yul\":4241:4259   */\n      add\n        /* \"#utility.yul\":4233:4259   */\n      swap1\n      pop\n        /* \"#utility.yul\":4305:4314   */\n      dup2\n        /* \"#utility.yul\":4299:4303   */\n      dup2\n        /* \"#utility.yul\":4295:4315   */\n      sub\n        /* \"#utility.yul\":4291:4292   */\n      0x00\n        /* \"#utility.yul\":4280:4289   */\n      dup4\n        /* \"#utility.yul\":4276:4293   */\n      add\n        /* \"#utility.yul\":4269:4316   */\n      mstore\n        /* \"#utility.yul\":4333:4411   */\n      tag_213\n        /* \"#utility.yul\":4406:4410   */\n      dup2\n        /* \"#utility.yul\":4397:4403   */\n      dup5\n        /* \"#utility.yul\":4333:4411   */\n      tag_147\n      jump\t// in\n    tag_213:\n        /* \"#utility.yul\":4325:4411   */\n      swap1\n      pop\n        /* \"#utility.yul\":4105:4418   */\n      swap3\n      swap2\n      pop\n      pop\n      jump\t// out\n        /* \"#utility.yul\":4424:4546   */\n    tag_150:\n        /* \"#utility.yul\":4497:4521   */\n      tag_215\n        /* \"#utility.yul\":4515:4520   */\n      dup2\n        /* \"#utility.yul\":4497:4521   */\n      tag_148\n      jump\t// in\n    tag_215:\n        /* \"#utility.yul\":4490:4495   */\n      dup2\n        /* \"#utility.yul\":4487:4522   */\n      eq\n        /* \"#utility.yul\":4477:4540   */\n      tag_216\n      jumpi\n        /* \"#utility.yul\":4536:4537   */\n      0x00\n        /* \"#utility.yul\":4533:4534   */\n      dup1\n        /* \"#utility.yul\":4526:4538   */\n      revert\n        /* \"#utility.yul\":4477:4540   */\n    tag_216:\n        /* \"#utility.yul\":4424:4546   */\n      pop\n      jump\t// out\n        /* \"#utility.yul\":4552:4691   */\n    tag_151:\n        /* \"#utility.yul\":4598:4603   */\n      0x00\n        /* \"#utility.yul\":4636:4642   */\n      dup2\n        /* \"#utility.yul\":4623:4643   */\n      calldataload\n        /* \"#utility.yul\":4614:4643   */\n      swap1\n      pop\n        /* \"#utility.yul\":4652:4685   */\n      tag_218\n        /* \"#utility.yul\":4679:4684   */\n      dup2\n        /* \"#utility.yul\":4652:4685   */\n      tag_150\n      jump\t// in\n    tag_218:\n        /* \"#utility.yul\":4552:4691   */\n      swap3\n      swap2\n      pop\n      pop\n      jump\t// out\n        /* \"#utility.yul\":4697:5026   */\n    tag_42:\n        /* \"#utility.yul\":4756:4762   */\n      0x00\n        /* \"#utility.yul\":4805:4807   */\n      0x20\n        /* \"#utility.yul\":4793:4802   */\n      dup3\n        /* \"#utility.yul\":4784:4791   */\n      dup5\n        /* \"#utility.yul\":4780:4803   */\n      sub\n        /* \"#utility.yul\":4776:4808   */\n      slt\n        /* \"#utility.yul\":4773:4892   */\n      iszero\n      tag_220\n      jumpi\n        /* \"#utility.yul\":4811:4890   */\n      tag_221\n      tag_134\n      jump\t// in\n    tag_221:\n        /* \"#utility.yul\":4773:4892   */\n    tag_220:\n        /* \"#utility.yul\":4931:4932   */\n      0x00\n        /* \"#utility.yul\":4956:5009   */\n      tag_222\n        /* \"#utility.yul\":5001:5008   */\n      dup5\n        /* \"#utility.yul\":4992:4998   */\n      dup3\n        /* \"#utility.yul\":4981:4990   */\n      dup6\n        /* \"#utility.yul\":4977:4999   */\n      add\n        /* \"#utility.yul\":4956:5009   */\n      tag_151\n      jump\t// in\n    tag_222:\n        /* \"#utility.yul\":4946:5009   */\n      swap2\n      pop\n        /* \"#utility.yul\":4902:5019   */\n      pop\n        /* \"#utility.yul\":4697:5026   */\n      swap3\n      swap2\n      pop\n      pop\n      jump\t// out\n        /* \"#utility.yul\":5032:5775   */\n    tag_45:\n        /* \"#utility.yul\":5251:5255   */\n      0x00\n        /* \"#utility.yul\":5289:5292   */\n      0xa0\n        /* \"#utility.yul\":5278:5287   */\n      dup3\n        /* \"#utility.yul\":5274:5293   */\n      add\n        /* \"#utility.yul\":5266:5293   */\n      swap1\n      pop\n        /* \"#utility.yul\":5339:5348   */\n      dup2\n        /* \"#utility.yul\":5333:5337   */\n      dup2\n        /* \"#utility.yul\":5329:5349   */\n      sub\n        /* \"#utility.yul\":5325:5326   */\n      0x00\n        /* \"#utility.yul\":5314:5323   */\n      dup4\n        /* \"#utility.yul\":5310:5327   */\n      add\n        /* \"#utility.yul\":5303:5350   */\n      mstore\n        /* \"#utility.yul\":5367:5445   */\n      tag_224\n        /* \"#utility.yul\":5440:5444   */\n      dup2\n        /* \"#utility.yul\":5431:5437   */\n      dup9\n        /* \"#utility.yul\":5367:5445   */\n      tag_147\n      jump\t// in\n    tag_224:\n        /* \"#utility.yul\":5359:5445   */\n      swap1\n      pop\n        /* \"#utility.yul\":5455:5527   */\n      tag_225\n        /* \"#utility.yul\":5523:5525   */\n      0x20\n        /* \"#utility.yul\":5512:5521   */\n      dup4\n        /* \"#utility.yul\":5508:5526   */\n      add\n        /* \"#utility.yul\":5499:5505   */\n      dup8\n        /* \"#utility.yul\":5455:5527   */\n      tag_149\n      jump\t// in\n    tag_225:\n        /* \"#utility.yul\":5537:5609   */\n      tag_226\n        /* \"#utility.yul\":5605:5607   */\n      0x40\n        /* \"#utility.yul\":5594:5603   */\n      dup4\n        /* \"#utility.yul\":5590:5608   */\n      add\n        /* \"#utility.yul\":5581:5587   */\n      dup7\n        /* \"#utility.yul\":5537:5609   */\n      tag_142\n      jump\t// in\n    tag_226:\n        /* \"#utility.yul\":5619:5685   */\n      tag_227\n        /* \"#utility.yul\":5681:5683   */\n      0x60\n        /* \"#utility.yul\":5670:5679   */\n      dup4\n        /* \"#utility.yul\":5666:5684   */\n      add\n        /* \"#utility.yul\":5657:5663   */\n      dup6\n        /* \"#utility.yul\":5619:5685   */\n      tag_141\n      jump\t// in\n    tag_227:\n        /* \"#utility.yul\":5695:5768   */\n      tag_228\n        /* \"#utility.yul\":5763:5766   */\n      0x80\n        /* \"#utility.yul\":5752:5761   */\n      dup4\n        /* \"#utility.yul\":5748:5767   */\n      add\n        /* \"#utility.yul\":5739:5745   */\n      dup5\n        /* \"#utility.yul\":5695:5768   */\n      tag_149\n      jump\t// in\n    tag_228:\n        /* \"#utility.yul\":5032:5775   */\n      swap7\n      swap6\n      pop\n      pop\n      pop\n      pop\n      pop\n      pop\n      jump\t// out\n        /* \"#utility.yul\":5781:6003   */\n    tag_50:\n        /* \"#utility.yul\":5874:5878   */\n      0x00\n        /* \"#utility.yul\":5912:5914   */\n      0x20\n        /* \"#utility.yul\":5901:5910   */\n      dup3\n        /* \"#utility.yul\":5897:5915   */\n      add\n        /* \"#utility.yul\":5889:5915   */\n      swap1\n      pop\n        /* \"#utility.yul\":5925:5996   */\n      tag_230\n        /* \"#utility.yul\":5993:5994   */\n      0x00\n        /* \"#utility.yul\":5982:5991   */\n      dup4\n        /* \"#utility.yul\":5978:5995   */\n      add\n        /* \"#utility.yul\":5969:5975   */\n      dup5\n        /* \"#utility.yul\":5925:5996   */\n      tag_149\n      jump\t// in\n    tag_230:\n        /* \"#utility.yul\":5781:6003   */\n      swap3\n      swap2\n      pop\n      pop\n      jump\t// out\n        /* \"#utility.yul\":6009:6126   */\n    tag_152:\n        /* \"#utility.yul\":6118:6119   */\n      0x00\n        /* \"#utility.yul\":6115:6116   */\n      dup1\n        /* \"#utility.yul\":6108:6120   */\n      revert\n        /* \"#utility.yul\":6132:6249   */\n    tag_153:\n        /* \"#utility.yul\":6241:6242   */\n      0x00\n        /* \"#utility.yul\":6238:6239   */\n      dup1\n        /* \"#utility.yul\":6231:6243   */\n      revert\n        /* \"#utility.yul\":6255:6435   */\n    tag_154:\n        /* \"#utility.yul\":6303:6380   */\n      0x4e487b7100000000000000000000000000000000000000000000000000000000\n        /* \"#utility.yul\":6300:6301   */\n      0x00\n        /* \"#utility.yul\":6293:6381   */\n      mstore\n        /* \"#utility.yul\":6400:6404   */\n      0x41\n        /* \"#utility.yul\":6397:6398   */\n      0x04\n        /* \"#utility.yul\":6390:6405   */\n      mstore\n        /* \"#utility.yul\":6424:6428   */\n      0x24\n        /* \"#utility.yul\":6421:6422   */\n      0x00\n        /* \"#utility.yul\":6414:6429   */\n      revert\n        /* \"#utility.yul\":6441:6722   */\n    tag_155:\n        /* \"#utility.yul\":6524:6551   */\n      tag_235\n        /* \"#utility.yul\":6546:6550   */\n      dup3\n        /* \"#utility.yul\":6524:6551   */\n      tag_146\n      jump\t// in\n    tag_235:\n        /* \"#utility.yul\":6516:6522   */\n      dup2\n        /* \"#utility.yul\":6512:6552   */\n      add\n        /* \"#utility.yul\":6654:6660   */\n      dup2\n        /* \"#utility.yul\":6642:6652   */\n      dup2\n        /* \"#utility.yul\":6639:6661   */\n      lt\n        /* \"#utility.yul\":6618:6636   */\n      0xffffffffffffffff\n        /* \"#utility.yul\":6606:6616   */\n      dup3\n        /* \"#utility.yul\":6603:6637   */\n      gt\n        /* \"#utility.yul\":6600:6662   */\n      or\n        /* \"#utility.yul\":6597:6685   */\n      iszero\n      tag_236\n      jumpi\n        /* \"#utility.yul\":6665:6683   */\n      tag_237\n      tag_154\n      jump\t// in\n    tag_237:\n        /* \"#utility.yul\":6597:6685   */\n    tag_236:\n        /* \"#utility.yul\":6705:6715   */\n      dup1\n        /* \"#utility.yul\":6701:6703   */\n      0x40\n        /* \"#utility.yul\":6694:6716   */\n      mstore\n        /* \"#utility.yul\":6484:6722   */\n      pop\n        /* \"#utility.yul\":6441:6722   */\n      pop\n      pop\n      jump\t// out\n        /* \"#utility.yul\":6728:6857   */\n    tag_156:\n        /* \"#utility.yul\":6762:6768   */\n      0x00\n        /* \"#utility.yul\":6789:6809   */\n      tag_239\n      tag_133\n      jump\t// in\n    tag_239:\n        /* \"#utility.yul\":6779:6809   */\n      swap1\n      pop\n        /* \"#utility.yul\":6818:6851   */\n      tag_240\n        /* \"#utility.yul\":6846:6850   */\n      dup3\n        /* \"#utility.yul\":6838:6844   */\n      dup3\n        /* \"#utility.yul\":6818:6851   */\n      tag_155\n      jump\t// in\n    tag_240:\n        /* \"#utility.yul\":6728:6857   */\n      swap2\n      swap1\n      pop\n      jump\t// out\n        /* \"#utility.yul\":6863:7171   */\n    tag_157:\n        /* \"#utility.yul\":6925:6929   */\n      0x00\n        /* \"#utility.yul\":7015:7033   */\n      0xffffffffffffffff\n        /* \"#utility.yul\":7007:7013   */\n      dup3\n        /* \"#utility.yul\":7004:7034   */\n      gt\n        /* \"#utility.yul\":7001:7057   */\n      iszero\n      tag_242\n      jumpi\n        /* \"#utility.yul\":7037:7055   */\n      tag_243\n      tag_154\n      jump\t// in\n    tag_243:\n        /* \"#utility.yul\":7001:7057   */\n    tag_242:\n        /* \"#utility.yul\":7075:7104   */\n      tag_244\n        /* \"#utility.yul\":7097:7103   */\n      dup3\n        /* \"#utility.yul\":7075:7104   */\n      tag_146\n      jump\t// in\n    tag_244:\n        /* \"#utility.yul\":7067:7104   */\n      swap1\n      pop\n        /* \"#utility.yul\":7159:7163   */\n      0x20\n        /* \"#utility.yul\":7153:7157   */\n      dup2\n        /* \"#utility.yul\":7149:7164   */\n      add\n        /* \"#utility.yul\":7141:7164   */\n      swap1\n      pop\n        /* \"#utility.yul\":6863:7171   */\n      swap2\n      swap1\n      pop\n      jump\t// out\n        /* \"#utility.yul\":7177:7331   */\n    tag_158:\n        /* \"#utility.yul\":7261:7267   */\n      dup3\n        /* \"#utility.yul\":7256:7259   */\n      dup2\n        /* \"#utility.yul\":7251:7254   */\n      dup4\n        /* \"#utility.yul\":7238:7268   */\n      calldatacopy\n        /* \"#utility.yul\":7323:7324   */\n      0x00\n        /* \"#utility.yul\":7314:7320   */\n      dup4\n        /* \"#utility.yul\":7309:7312   */\n      dup4\n        /* \"#utility.yul\":7305:7321   */\n      add\n        /* \"#utility.yul\":7298:7325   */\n      mstore\n        /* \"#utility.yul\":7177:7331   */\n      pop\n      pop\n      pop\n      jump\t// out\n        /* \"#utility.yul\":7337:7749   */\n    tag_159:\n        /* \"#utility.yul\":7415:7420   */\n      0x00\n        /* \"#utility.yul\":7440:7506   */\n      tag_247\n        /* \"#utility.yul\":7456:7505   */\n      tag_248\n        /* \"#utility.yul\":7498:7504   */\n      dup5\n        /* \"#utility.yul\":7456:7505   */\n      tag_157\n      jump\t// in\n    tag_248:\n        /* \"#utility.yul\":7440:7506   */\n      tag_156\n      jump\t// in\n    tag_247:\n        /* \"#utility.yul\":7431:7506   */\n      swap1\n      pop\n        /* \"#utility.yul\":7529:7535   */\n      dup3\n        /* \"#utility.yul\":7522:7527   */\n      dup2\n        /* \"#utility.yul\":7515:7536   */\n      mstore\n        /* \"#utility.yul\":7567:7571   */\n      0x20\n        /* \"#utility.yul\":7560:7565   */\n      dup2\n        /* \"#utility.yul\":7556:7572   */\n      add\n        /* \"#utility.yul\":7605:7608   */\n      dup5\n        /* \"#utility.yul\":7596:7602   */\n      dup5\n        /* \"#utility.yul\":7591:7594   */\n      dup5\n        /* \"#utility.yul\":7587:7603   */\n      add\n        /* \"#utility.yul\":7584:7609   */\n      gt\n        /* \"#utility.yul\":7581:7693   */\n      iszero\n      tag_249\n      jumpi\n        /* \"#utility.yul\":7612:7691   */\n      tag_250\n      tag_153\n      jump\t// in\n    tag_250:\n        /* \"#utility.yul\":7581:7693   */\n    tag_249:\n        /* \"#utility.yul\":7702:7743   */\n      tag_251\n        /* \"#utility.yul\":7736:7742   */\n      dup5\n        /* \"#utility.yul\":7731:7734   */\n      dup3\n        /* \"#utility.yul\":7726:7729   */\n      dup6\n        /* \"#utility.yul\":7702:7743   */\n      tag_158\n      jump\t// in\n    tag_251:\n        /* \"#utility.yul\":7421:7749   */\n      pop\n        /* \"#utility.yul\":7337:7749   */\n      swap4\n      swap3\n      pop\n      pop\n      pop\n      jump\t// out\n        /* \"#utility.yul\":7769:8109   */\n    tag_160:\n        /* \"#utility.yul\":7825:7830   */\n      0x00\n        /* \"#utility.yul\":7874:7877   */\n      dup3\n        /* \"#utility.yul\":7867:7871   */\n      0x1f\n        /* \"#utility.yul\":7859:7865   */\n      dup4\n        /* \"#utility.yul\":7855:7872   */\n      add\n        /* \"#utility.yul\":7851:7878   */\n      slt\n        /* \"#utility.yul\":7841:7963   */\n      tag_253\n      jumpi\n        /* \"#utility.yul\":7882:7961   */\n      tag_254\n      tag_152\n      jump\t// in\n    tag_254:\n        /* \"#utility.yul\":7841:7963   */\n    tag_253:\n        /* \"#utility.yul\":7999:8005   */\n      dup2\n        /* \"#utility.yul\":7986:8006   */\n      calldataload\n        /* \"#utility.yul\":8024:8103   */\n      tag_255\n        /* \"#utility.yul\":8099:8102   */\n      dup5\n        /* \"#utility.yul\":8091:8097   */\n      dup3\n        /* \"#utility.yul\":8084:8088   */\n      0x20\n        /* \"#utility.yul\":8076:8082   */\n      dup7\n        /* \"#utility.yul\":8072:8089   */\n      add\n        /* \"#utility.yul\":8024:8103   */\n      tag_159\n      jump\t// in\n    tag_255:\n        /* \"#utility.yul\":8015:8103   */\n      swap2\n      pop\n        /* \"#utility.yul\":7831:8109   */\n      pop\n        /* \"#utility.yul\":7769:8109   */\n      swap3\n      swap2\n      pop\n      pop\n      jump\t// out\n        /* \"#utility.yul\":8115:8914   */\n    tag_54:\n        /* \"#utility.yul\":8202:8208   */\n      0x00\n        /* \"#utility.yul\":8210:8216   */\n      dup1\n        /* \"#utility.yul\":8218:8224   */\n      0x00\n        /* \"#utility.yul\":8267:8269   */\n      0x60\n        /* \"#utility.yul\":8255:8264   */\n      dup5\n        /* \"#utility.yul\":8246:8253   */\n      dup7\n        /* \"#utility.yul\":8242:8265   */\n      sub\n        /* \"#utility.yul\":8238:8270   */\n      slt\n        /* \"#utility.yul\":8235:8354   */\n      iszero\n      tag_257\n      jumpi\n        /* \"#utility.yul\":8273:8352   */\n      tag_258\n      tag_134\n      jump\t// in\n    tag_258:\n        /* \"#utility.yul\":8235:8354   */\n    tag_257:\n        /* \"#utility.yul\":8421:8422   */\n      0x00\n        /* \"#utility.yul\":8410:8419   */\n      dup5\n        /* \"#utility.yul\":8406:8423   */\n      add\n        /* \"#utility.yul\":8393:8424   */\n      calldataload\n        /* \"#utility.yul\":8451:8469   */\n      0xffffffffffffffff\n        /* \"#utility.yul\":8443:8449   */\n      dup2\n        /* \"#utility.yul\":8440:8470   */\n      gt\n        /* \"#utility.yul\":8437:8554   */\n      iszero\n      tag_259\n      jumpi\n        /* \"#utility.yul\":8473:8552   */\n      tag_260\n      tag_135\n      jump\t// in\n    tag_260:\n        /* \"#utility.yul\":8437:8554   */\n    tag_259:\n        /* \"#utility.yul\":8578:8641   */\n      tag_261\n        /* \"#utility.yul\":8633:8640   */\n      dup7\n        /* \"#utility.yul\":8624:8630   */\n      dup3\n        /* \"#utility.yul\":8613:8622   */\n      dup8\n        /* \"#utility.yul\":8609:8631   */\n      add\n        /* \"#utility.yul\":8578:8641   */\n      tag_160\n      jump\t// in\n    tag_261:\n        /* \"#utility.yul\":8568:8641   */\n      swap4\n      pop\n        /* \"#utility.yul\":8364:8651   */\n      pop\n        /* \"#utility.yul\":8690:8692   */\n      0x20\n        /* \"#utility.yul\":8716:8769   */\n      tag_262\n        /* \"#utility.yul\":8761:8768   */\n      dup7\n        /* \"#utility.yul\":8752:8758   */\n      dup3\n        /* \"#utility.yul\":8741:8750   */\n      dup8\n        /* \"#utility.yul\":8737:8759   */\n      add\n        /* \"#utility.yul\":8716:8769   */\n      tag_151\n      jump\t// in\n    tag_262:\n        /* \"#utility.yul\":8706:8769   */\n      swap3\n      pop\n        /* \"#utility.yul\":8661:8779   */\n      pop\n        /* \"#utility.yul\":8818:8820   */\n      0x40\n        /* \"#utility.yul\":8844:8897   */\n      tag_263\n        /* \"#utility.yul\":8889:8896   */\n      dup7\n        /* \"#utility.yul\":8880:8886   */\n      dup3\n        /* \"#utility.yul\":8869:8878   */\n      dup8\n        /* \"#utility.yul\":8865:8887   */\n      add\n        /* \"#utility.yul\":8844:8897   */\n      tag_139\n      jump\t// in\n    tag_263:\n        /* \"#utility.yul\":8834:8897   */\n      swap2\n      pop\n        /* \"#utility.yul\":8789:8907   */\n      pop\n        /* \"#utility.yul\":8115:8914   */\n      swap3\n      pop\n      swap3\n      pop\n      swap3\n      jump\t// out\n        /* \"#utility.yul\":8920:9429   */\n    tag_67:\n        /* \"#utility.yul\":8989:8995   */\n      0x00\n        /* \"#utility.yul\":9038:9040   */\n      0x20\n        /* \"#utility.yul\":9026:9035   */\n      dup3\n        /* \"#utility.yul\":9017:9024   */\n      dup5\n        /* \"#utility.yul\":9013:9036   */\n      sub\n        /* \"#utility.yul\":9009:9041   */\n      slt\n        /* \"#utility.yul\":9006:9125   */\n      iszero\n      tag_265\n      jumpi\n        /* \"#utility.yul\":9044:9123   */\n      tag_266\n      tag_134\n      jump\t// in\n    tag_266:\n        /* \"#utility.yul\":9006:9125   */\n    tag_265:\n        /* \"#utility.yul\":9192:9193   */\n      0x00\n        /* \"#utility.yul\":9181:9190   */\n      dup3\n        /* \"#utility.yul\":9177:9194   */\n      add\n        /* \"#utility.yul\":9164:9195   */\n      calldataload\n        /* \"#utility.yul\":9222:9240   */\n      0xffffffffffffffff\n        /* \"#utility.yul\":9214:9220   */\n      dup2\n        /* \"#utility.yul\":9211:9241   */\n      gt\n        /* \"#utility.yul\":9208:9325   */\n      iszero\n      tag_267\n      jumpi\n        /* \"#utility.yul\":9244:9323   */\n      tag_268\n      tag_135\n      jump\t// in\n    tag_268:\n        /* \"#utility.yul\":9208:9325   */\n    tag_267:\n        /* \"#utility.yul\":9349:9412   */\n      tag_269\n        /* \"#utility.yul\":9404:9411   */\n      dup5\n        /* \"#utility.yul\":9395:9401   */\n      dup3\n        /* \"#utility.yul\":9384:9393   */\n      dup6\n        /* \"#utility.yul\":9380:9402   */\n      add\n        /* \"#utility.yul\":9349:9412   */\n      tag_160\n      jump\t// in\n    tag_269:\n        /* \"#utility.yul\":9339:9412   */\n      swap2\n      pop\n        /* \"#utility.yul\":9135:9422   */\n      pop\n        /* \"#utility.yul\":8920:9429   */\n      swap3\n      swap2\n      pop\n      pop\n      jump\t// out\n        /* \"#utility.yul\":9435:9615   */\n    tag_161:\n        /* \"#utility.yul\":9483:9560   */\n      0x4e487b7100000000000000000000000000000000000000000000000000000000\n        /* \"#utility.yul\":9480:9481   */\n      0x00\n        /* \"#utility.yul\":9473:9561   */\n      mstore\n        /* \"#utility.yul\":9580:9584   */\n      0x22\n        /* \"#utility.yul\":9577:9578   */\n      0x04\n        /* \"#utility.yul\":9570:9585   */\n      mstore\n        /* \"#utility.yul\":9604:9608   */\n      0x24\n        /* \"#utility.yul\":9601:9602   */\n      0x00\n        /* \"#utility.yul\":9594:9609   */\n      revert\n        /* \"#utility.yul\":9621:9941   */\n    tag_81:\n        /* \"#utility.yul\":9665:9671   */\n      0x00\n        /* \"#utility.yul\":9702:9703   */\n      0x02\n        /* \"#utility.yul\":9696:9700   */\n      dup3\n        /* \"#utility.yul\":9692:9704   */\n      div\n        /* \"#utility.yul\":9682:9704   */\n      swap1\n      pop\n        /* \"#utility.yul\":9749:9750   */\n      0x01\n        /* \"#utility.yul\":9743:9747   */\n      dup3\n        /* \"#utility.yul\":9739:9751   */\n      and\n        /* \"#utility.yul\":9770:9788   */\n      dup1\n        /* \"#utility.yul\":9760:9841   */\n      tag_272\n      jumpi\n        /* \"#utility.yul\":9826:9830   */\n      0x7f\n        /* \"#utility.yul\":9818:9824   */\n      dup3\n        /* \"#utility.yul\":9814:9831   */\n      and\n        /* \"#utility.yul\":9804:9831   */\n      swap2\n      pop\n        /* \"#utility.yul\":9760:9841   */\n    tag_272:\n        /* \"#utility.yul\":9888:9890   */\n      0x20\n        /* \"#utility.yul\":9880:9886   */\n      dup3\n        /* \"#utility.yul\":9877:9891   */\n      lt\n        /* \"#utility.yul\":9857:9875   */\n      dup2\n        /* \"#utility.yul\":9854:9892   */\n      sub\n        /* \"#utility.yul\":9851:9935   */\n      tag_273\n      jumpi\n        /* \"#utility.yul\":9907:9925   */\n      tag_274\n      tag_161\n      jump\t// in\n    tag_274:\n        /* \"#utility.yul\":9851:9935   */\n    tag_273:\n        /* \"#utility.yul\":9672:9941   */\n      pop\n        /* \"#utility.yul\":9621:9941   */\n      swap2\n      swap1\n      pop\n      jump\t// out\n        /* \"#utility.yul\":9947:10127   */\n    tag_162:\n        /* \"#utility.yul\":9995:10072   */\n      0x4e487b7100000000000000000000000000000000000000000000000000000000\n        /* \"#utility.yul\":9992:9993   */\n      0x00\n        /* \"#utility.yul\":9985:10073   */\n      mstore\n        /* \"#utility.yul\":10092:10096   */\n      0x11\n        /* \"#utility.yul\":10089:10090   */\n      0x04\n        /* \"#utility.yul\":10082:10097   */\n      mstore\n        /* \"#utility.yul\":10116:10120   */\n      0x24\n        /* \"#utility.yul\":10113:10114   */\n      0x00\n        /* \"#utility.yul\":10106:10121   */\n      revert\n        /* \"#utility.yul\":10133:10366   */\n    tag_100:\n        /* \"#utility.yul\":10172:10175   */\n      0x00\n        /* \"#utility.yul\":10195:10219   */\n      tag_277\n        /* \"#utility.yul\":10213:10218   */\n      dup3\n        /* \"#utility.yul\":10195:10219   */\n      tag_148\n      jump\t// in\n    tag_277:\n        /* \"#utility.yul\":10186:10219   */\n      swap2\n      pop\n        /* \"#utility.yul\":10241:10307   */\n      0xffffffffffffffffffffffffffffffffffffffffffffffffffffffffffffffff\n        /* \"#utility.yul\":10234:10239   */\n      dup3\n        /* \"#utility.yul\":10231:10308   */\n      sub\n        /* \"#utility.yul\":10228:10331   */\n      tag_278\n      jumpi\n        /* \"#utility.yul\":10311:10329   */\n      tag_279\n      tag_162\n      jump\t// in\n    tag_279:\n        /* \"#utility.yul\":10228:10331   */\n    tag_278:\n        /* \"#utility.yul\":10358:10359   */\n      0x01\n        /* \"#utility.yul\":10351:10356   */\n      dup3\n        /* \"#utility.yul\":10347:10360   */\n      add\n        /* \"#utility.yul\":10340:10360   */\n      swap1\n      pop\n        /* \"#utility.yul\":10133:10366   */\n      swap2\n      swap1\n      pop\n      jump\t// out\n        /* \"#utility.yul\":10372:10552   */\n    tag_163:\n        /* \"#utility.yul\":10420:10497   */\n      0x4e487b7100000000000000000000000000000000000000000000000000000000\n        /* \"#utility.yul\":10417:10418   */\n      0x00\n        /* \"#utility.yul\":10410:10498   */\n      mstore\n        /* \"#utility.yul\":10517:10521   */\n      0x12\n        /* \"#utility.yul\":10514:10515   */\n      0x04\n        /* \"#utility.yul\":10507:10522   */\n      mstore\n        /* \"#utility.yul\":10541:10545   */\n      0x24\n        /* \"#utility.yul\":10538:10539   */\n      0x00\n        /* \"#utility.yul\":10531:10546   */\n      revert\n        /* \"#utility.yul\":10558:10743   */\n    tag_107:\n        /* \"#utility.yul\":10598:10599   */\n      0x00\n        /* \"#utility.yul\":10615:10635   */\n      tag_282\n        /* \"#utility.yul\":10633:10634   */\n      dup3\n        /* \"#utility.yul\":10615:10635   */\n      tag_148\n      jump\t// in\n    tag_282:\n        /* \"#utility.yul\":10610:10635   */\n      swap2\n      pop\n        /* \"#utility.yul\":10649:10669   */\n      tag_283\n        /* \"#utility.yul\":10667:10668   */\n      dup4\n        /* \"#utility.yul\":10649:10669   */\n      tag_148\n      jump\t// in\n    tag_283:\n        /* \"#utility.yul\":10644:10669   */\n      swap3\n      pop\n        /* \"#utility.yul\":10688:10689   */\n      dup3\n        /* \"#utility.yul\":10678:10713   */\n      tag_284\n      jumpi\n        /* \"#utility.yul\":10693:10711   */\n      tag_285\n      tag_163\n      jump\t// in\n    tag_285:\n        /* \"#utility.yul\":10678:10713   */\n    tag_284:\n        /* \"#utility.yul\":10735:10736   */\n      dup3\n        /* \"#utility.yul\":10732:10733   */\n      dup3\n        /* \"#utility.yul\":10728:10737   */\n      div\n        /* \"#utility.yul\":10723:10737   */\n      swap1\n      pop\n        /* \"#utility.yul\":10558:10743   */\n      swap3\n      swap2\n      pop\n      pop\n      jump\t// out\n\n    auxdata: 0xa2646970667358221220e4cc2e8bd56edd76cc0bc013ad05cbacf629341855e5307cea94477aed77835764736f6c634300080d0033\n}\n","bytecode":{"linkReferences":{},"object":"60806040523480156200001157600080fd5b50604051620015a2380380620015a283398181016040528101906200003791906200038d565b82600290805190602001906200004f929190620000a0565b5081600181905550806000806101000a81548173ffffffffffffffffffffffffffffffffffffffff021916908373ffffffffffffffffffffffffffffffffffffffff1602179055505050506200046c565b828054620000ae9062000437565b90600052602060002090601f016020900481019282620000d257600085556200011e565b82601f10620000ed57805160ff19168380011785556200011e565b828001600101855582156200011e579182015b828111156200011d57825182559160200191906001019062000100565b5b5090506200012d919062000131565b5090565b5b808211156200014c57600081600090555060010162000132565b5090565b6000604051905090565b600080fd5b600080fd5b600080fd5b600080fd5b6000601f19601f8301169050919050565b7f4e487b7100000000000000000000000000000000000000000000000000000000600052604160045260246000fd5b620001b9826200016e565b810181811067ffffffffffffffff82111715620001db57620001da6200017f565b5b80604052505050565b6000620001f062000150565b9050620001fe8282620001ae565b919050565b600067ffffffffffffffff8211156200022157620002206200017f565b5b6200022c826200016e565b9050602081019050919050565b60005b83811015620002595780820151818401526020810190506200023c565b8381111562000269576000848401525b50505050565b600062000286620002808462000203565b620001e4565b905082815260208101848484011115620002a557620002a462000169565b5b620002b284828562000239565b509392505050565b600082601f830112620002d257620002d162000164565b5b8151620002e48482602086016200026f565b91505092915050565b6000819050919050565b6200030281620002ed565b81146200030e57600080fd5b50565b6000815190506200032281620002f7565b92915050565b600073ffffffffffffffffffffffffffffffffffffffff82169050919050565b6000620003558262000328565b9050919050565b620003678162000348565b81146200037357600080fd5b50565b60008151905062000387816200035c565b92915050565b600080600060608486031215620003a957620003a86200015a565b5b600084015167ffffffffffffffff811115620003ca57620003c96200015f565b5b620003d886828701620002ba565b9350506020620003eb8682870162000311565b9250506040620003fe8682870162000376565b9150509250925092565b7f4e487b7100000000000000000000000000000000000000000000000000000000600052602260045260246000fd5b600060028204905060018216806200045057607f821691505b60208210810362000466576200046562000408565b5b50919050565b611126806200047c6000396000f3fe6080604052600436106100c25760003560e01c80638a9cfd551161007f578063ce50ac7611610059578063ce50ac7614610273578063d7bb99ba1461029c578063d7d1bbdb146102a6578063fbfa4b7f146102cf576100c2565b80638a9cfd55146101f6578063937e09b11461021f578063cc58b5ef1461024a576100c2565b80630a144391146100c7578063481c6a75146101045780635b2a4cff1461012f57806375d0c0dc1461015f57806381d12c581461018a57806382fde093146101cb575b600080fd5b3480156100d357600080fd5b506100ee60048036038101906100e99190610b35565b6102fa565b6040516100fb9190610b7d565b60405180910390f35b34801561011057600080fd5b5061011961031a565b6040516101269190610ba7565b60405180910390f35b34801561013b57600080fd5b5061014461033e565b60405161015696959493929190610c74565b60405180910390f35b34801561016b57600080fd5b50610174610415565b6040516101819190610cdc565b60405180910390f35b34801561019657600080fd5b506101b160048036038101906101ac9190610d2a565b6104a3565b6040516101c2959493929190610d57565b60405180910390f35b3480156101d757600080fd5b506101e061058e565b6040516101ed9190610db1565b60405180910390f35b34801561020257600080fd5b5061021d60048036038101906102189190610f01565b610594565b005b34801561022b57600080fd5b506102346106ab565b6040516102419190610db1565b60405180910390f35b34801561025657600080fd5b50610271600480360381019061026c9190610d2a565b6106b1565b005b34801561027f57600080fd5b5061029a60048036038101906102959190610f70565b6107ea565b005b6102a461085c565b005b3480156102b257600080fd5b506102cd60048036038101906102c89190610d2a565b6108dc565b005b3480156102db57600080fd5b506102e4610a1a565b6040516102f19190610db1565b60405180910390f35b60036020528060005260406000206000915054906101000a900460ff1681565b60008054906101000a900473ffffffffffffffffffffffffffffffffffffffff1681565b60606000806000806000600260008054906101000a900473ffffffffffffffffffffffffffffffffffffffff166001546005546006544785805461038190610fe8565b80601f01602080910402602001604051908101604052809291908181526020018280546103ad90610fe8565b80156103fa5780601f106103cf576101008083540402835291602001916103fa565b820191906000526020600020905b8154815290600101906020018083116103dd57829003601f168201915b50505050509550955095509550955095509550909192939495565b6002805461042290610fe8565b80601f016020809104026020016040519081016040528092919081815260200182805461044e90610fe8565b801561049b5780601f106104705761010080835404028352916020019161049b565b820191906000526020600020905b81548152906001019060200180831161047e57829003601f168201915b505050505081565b60046020528060005260406000206000915090508060000180546104c690610fe8565b80601f01602080910402602001604051908101604052809291908181526020018280546104f290610fe8565b801561053f5780601f106105145761010080835404028352916020019161053f565b820191906000526020600020905b81548152906001019060200180831161052257829003601f168201915b5050505050908060010154908060020160009054906101000a900473ffffffffffffffffffffffffffffffffffffffff16908060020160149054906101000a900460ff16908060030154905085565b60065481565b60008054906101000a900473ffffffffffffffffffffffffffffffffffffffff1673ffffffffffffffffffffffffffffffffffffffff163373ffffffffffffffffffffffffffffffffffffffff16146105ec57600080fd5b6000600460006005600081548092919061060590611048565b919050558152602001908152602001600020905083816000019080519060200190610631929190610a20565b50828160010181905550818160020160006101000a81548173ffffffffffffffffffffffffffffffffffffffff021916908373ffffffffffffffffffffffffffffffffffffffff16021790555060008160020160146101000a81548160ff0219169083151502179055506000816003018190555050505050565b60015481565b60008054906101000a900473ffffffffffffffffffffffffffffffffffffffff1673ffffffffffffffffffffffffffffffffffffffff163373ffffffffffffffffffffffffffffffffffffffff161461070957600080fd5b6000600460008381526020019081526020016000209050600260065461072f91906110bf565b81600301541161073e57600080fd5b8060020160149054906101000a900460ff161561075a57600080fd5b8060020160009054906101000a900473ffffffffffffffffffffffffffffffffffffffff1673ffffffffffffffffffffffffffffffffffffffff166108fc82600101549081150290604051600060405180830381858888f193505050501580156107c8573d6000803e3d6000fd5b5060018160020160146101000a81548160ff0219169083151502179055505050565b60008054906101000a900473ffffffffffffffffffffffffffffffffffffffff1673ffffffffffffffffffffffffffffffffffffffff163373ffffffffffffffffffffffffffffffffffffffff161461084257600080fd5b8060029080519060200190610858929190610a20565b5050565b600154341161086a57600080fd5b6001600360003373ffffffffffffffffffffffffffffffffffffffff1673ffffffffffffffffffffffffffffffffffffffff16815260200190815260200160002060006101000a81548160ff021916908315150217905550600660008154809291906108d590611048565b9190505550565b6000600460008381526020019081526020016000209050600360003373ffffffffffffffffffffffffffffffffffffffff1673ffffffffffffffffffffffffffffffffffffffff16815260200190815260200160002060009054906101000a900460ff1661094957600080fd5b8060040160003373ffffffffffffffffffffffffffffffffffffffff1673ffffffffffffffffffffffffffffffffffffffff16815260200190815260200160002060009054906101000a900460ff16156109a257600080fd5b60018160040160003373ffffffffffffffffffffffffffffffffffffffff1673ffffffffffffffffffffffffffffffffffffffff16815260200190815260200160002060006101000a81548160ff021916908315150217905550806003016000815480929190610a1190611048565b91905055505050565b60055481565b828054610a2c90610fe8565b90600052602060002090601f016020900481019282610a4e5760008555610a95565b82601f10610a6757805160ff1916838001178555610a95565b82800160010185558215610a95579182015b82811115610a94578251825591602001919060010190610a79565b5b509050610aa29190610aa6565b5090565b5b80821115610abf576000816000905550600101610aa7565b5090565b6000604051905090565b600080fd5b600080fd5b600073ffffffffffffffffffffffffffffffffffffffff82169050919050565b6000610b0282610ad7565b9050919050565b610b1281610af7565b8114610b1d57600080fd5b50565b600081359050610b2f81610b09565b92915050565b600060208284031215610b4b57610b4a610acd565b5b6000610b5984828501610b20565b91505092915050565b60008115159050919050565b610b7781610b62565b82525050565b6000602082019050610b926000830184610b6e565b92915050565b610ba181610af7565b82525050565b6000602082019050610bbc6000830184610b98565b92915050565b600081519050919050565b600082825260208201905092915050565b60005b83811015610bfc578082015181840152602081019050610be1565b83811115610c0b576000848401525b50505050565b6000601f19601f8301169050919050565b6000610c2d82610bc2565b610c378185610bcd565b9350610c47818560208601610bde565b610c5081610c11565b840191505092915050565b6000819050919050565b610c6e81610c5b565b82525050565b600060c0820190508181036000830152610c8e8189610c22565b9050610c9d6020830188610b98565b610caa6040830187610c65565b610cb76060830186610c65565b610cc46080830185610c65565b610cd160a0830184610c65565b979650505050505050565b60006020820190508181036000830152610cf68184610c22565b905092915050565b610d0781610c5b565b8114610d1257600080fd5b50565b600081359050610d2481610cfe565b92915050565b600060208284031215610d4057610d3f610acd565b5b6000610d4e84828501610d15565b91505092915050565b600060a0820190508181036000830152610d718188610c22565b9050610d806020830187610c65565b610d8d6040830186610b98565b610d9a6060830185610b6e565b610da76080830184610c65565b9695505050505050565b6000602082019050610dc66000830184610c65565b92915050565b600080fd5b600080fd5b7f4e487b7100000000000000000000000000000000000000000000000000000000600052604160045260246000fd5b610e0e82610c11565b810181811067ffffffffffffffff82111715610e2d57610e2c610dd6565b5b80604052505050565b6000610e40610ac3565b9050610e4c8282610e05565b919050565b600067ffffffffffffffff821115610e6c57610e6b610dd6565b5b610e7582610c11565b9050602081019050919050565b82818337600083830152505050565b6000610ea4610e9f84610e51565b610e36565b905082815260208101848484011115610ec057610ebf610dd1565b5b610ecb848285610e82565b509392505050565b600082601f830112610ee857610ee7610dcc565b5b8135610ef8848260208601610e91565b91505092915050565b600080600060608486031215610f1a57610f19610acd565b5b600084013567ffffffffffffffff811115610f3857610f37610ad2565b5b610f4486828701610ed3565b9350506020610f5586828701610d15565b9250506040610f6686828701610b20565b9150509250925092565b600060208284031215610f8657610f85610acd565b5b600082013567ffffffffffffffff811115610fa457610fa3610ad2565b5b610fb084828501610ed3565b91505092915050565b7f4e487b7100000000000000000000000000000000000000000000000000000000600052602260045260246000fd5b6000600282049050600182168061100057607f821691505b60208210810361101357611012610fb9565b5b50919050565b7f4e487b7100000000000000000000000000000000000000000000000000000000600052601160045260246000fd5b600061105382610c5b565b91507fffffffffffffffffffffffffffffffffffffffffffffffffffffffffffffffff820361108557611084611019565b5b600182019050919050565b7f4e487b7100000000000000000000000000000000000000000000000000000000600052601260045260246000fd5b60006110ca82610c5b565b91506110d583610c5b565b9250826110e5576110e4611090565b5b82820490509291505056fea2646970667358221220e4cc2e8bd56edd76cc0bc013ad05cbacf629341855e5307cea94477aed77835764736f6c634300080d0033","opcodes":"PUSH1 0x80 PUSH1 0x40 MSTORE CALLVALUE DUP1 ISZERO PUSH3 0x11 JUMPI PUSH1 0x0 DUP1 REVERT JUMPDEST POP PUSH1 0x40 MLOAD PUSH3 0x15A2 CODESIZE SUB DUP1 PUSH3 0x15A2 DUP4 CODECOPY DUP2 DUP2 ADD PUSH1 0x40 MSTORE DUP2 ADD SWAP1 PUSH3 0x37 SWAP2 SWAP1 PUSH3 0x38D JUMP JUMPDEST DUP3 PUSH1 0x2 SWAP1 DUP1 MLOAD SWAP1 PUSH1 0x20 ADD SWAP1 PUSH3 0x4F SWAP3 SWAP2 SWAP1 PUSH3 0xA0 JUMP JUMPDEST POP DUP2 PUSH1 0x1 DUP2 SWAP1 SSTORE POP DUP1 PUSH1 0x0 DUP1 PUSH2 0x100 EXP DUP2 SLOAD DUP2 PUSH20 0xFFFFFFFFFFFFFFFFFFFFFFFFFFFFFFFFFFFFFFFF MUL NOT AND SWAP1 DUP4 PUSH20 0xFFFFFFFFFFFFFFFFFFFFFFFFFFFFFFFFFFFFFFFF AND MUL OR SWAP1 SSTORE POP POP POP POP PUSH3 0x46C JUMP JUMPDEST DUP3 DUP1 SLOAD PUSH3 0xAE SWAP1 PUSH3 0x437 JUMP JUMPDEST SWAP1 PUSH1 0x0 MSTORE PUSH1 0x20 PUSH1 0x0 KECCAK256 SWAP1 PUSH1 0x1F ADD PUSH1 0x20 SWAP1 DIV DUP2 ADD SWAP3 DUP3 PUSH3 0xD2 JUMPI PUSH1 0x0 DUP6 SSTORE PUSH3 0x11E JUMP JUMPDEST DUP3 PUSH1 0x1F LT PUSH3 0xED JUMPI DUP1 MLOAD PUSH1 0xFF NOT AND DUP4 DUP1 ADD OR DUP6 SSTORE PUSH3 0x11E JUMP JUMPDEST DUP3 DUP1 ADD PUSH1 0x1 ADD DUP6 SSTORE DUP3 ISZERO PUSH3 0x11E JUMPI SWAP2 DUP3 ADD JUMPDEST DUP3 DUP2 GT ISZERO PUSH3 0x11D JUMPI DUP3 MLOAD DUP3 SSTORE SWAP2 PUSH1 0x20 ADD SWAP2 SWAP1 PUSH1 0x1 ADD SWAP1 PUSH3 0x100 JUMP JUMPDEST JUMPDEST POP SWAP1 POP PUSH3 0x12D SWAP2 SWAP1 PUSH3 0x131 JUMP JUMPDEST POP SWAP1 JUMP JUMPDEST JUMPDEST DUP1 DUP3 GT ISZERO PUSH3 0x14C JUMPI PUSH1 0x0 DUP2 PUSH1 0x0 SWAP1 SSTORE POP PUSH1 0x1 ADD PUSH3 0x132 JUMP JUMPDEST POP SWAP1 JUMP JUMPDEST PUSH1 0x0 PUSH1 0x40 MLOAD SWAP1 POP SWAP1 JUMP JUMPDEST PUSH1 0x0 DUP1 REVERT JUMPDEST PUSH1 0x0 DUP1 REVERT JUMPDEST PUSH1 0x0 DUP1 REVERT JUMPDEST PUSH1 0x0 DUP1 REVERT JUMPDEST PUSH1 0x0 PUSH1 0x1F NOT PUSH1 0x1F DUP4 ADD AND SWAP1 POP SWAP2 SWAP1 POP JUMP JUMPDEST PUSH32 0x4E487B7100000000000000000000000000000000000000000000000000000000 PUSH1 0x0 MSTORE PUSH1 0x41 PUSH1 0x4 MSTORE PUSH1 0x24 PUSH1 0x0 REVERT JUMPDEST PUSH3 0x1B9 DUP3 PUSH3 0x16E JUMP JUMPDEST DUP2 ADD DUP2 DUP2 LT PUSH8 0xFFFFFFFFFFFFFFFF DUP3 GT OR ISZERO PUSH3 0x1DB JUMPI PUSH3 0x1DA PUSH3 0x17F JUMP JUMPDEST JUMPDEST DUP1 PUSH1 0x40 MSTORE POP POP POP JUMP JUMPDEST PUSH1 0x0 PUSH3 0x1F0 PUSH3 0x150 JUMP JUMPDEST SWAP1 POP PUSH3 0x1FE DUP3 DUP3 PUSH3 0x1AE JUMP JUMPDEST SWAP2 SWAP1 POP JUMP JUMPDEST PUSH1 0x0 PUSH8 0xFFFFFFFFFFFFFFFF DUP3 GT ISZERO PUSH3 0x221 JUMPI PUSH3 0x220 PUSH3 0x17F JUMP JUMPDEST JUMPDEST PUSH3 0x22C DUP3 PUSH3 0x16E JUMP JUMPDEST SWAP1 POP PUSH1 0x20 DUP2 ADD SWAP1 POP SWAP2 SWAP1 POP JUMP JUMPDEST PUSH1 0x0 JUMPDEST DUP4 DUP2 LT ISZERO PUSH3 0x259 JUMPI DUP1 DUP3 ADD MLOAD DUP2 DUP5 ADD MSTORE PUSH1 0x20 DUP2 ADD SWAP1 POP PUSH3 0x23C JUMP JUMPDEST DUP4 DUP2 GT ISZERO PUSH3 0x269 JUMPI PUSH1 0x0 DUP5 DUP5 ADD MSTORE JUMPDEST POP POP POP POP JUMP JUMPDEST PUSH1 0x0 PUSH3 0x286 PUSH3 0x280 DUP5 PUSH3 0x203 JUMP JUMPDEST PUSH3 0x1E4 JUMP JUMPDEST SWAP1 POP DUP3 DUP2 MSTORE PUSH1 0x20 DUP2 ADD DUP5 DUP5 DUP5 ADD GT ISZERO PUSH3 0x2A5 JUMPI PUSH3 0x2A4 PUSH3 0x169 JUMP JUMPDEST JUMPDEST PUSH3 0x2B2 DUP5 DUP3 DUP6 PUSH3 0x239 JUMP JUMPDEST POP SWAP4 SWAP3 POP POP POP JUMP JUMPDEST PUSH1 0x0 DUP3 PUSH1 0x1F DUP4 ADD SLT PUSH3 0x2D2 JUMPI PUSH3 0x2D1 PUSH3 0x164 JUMP JUMPDEST JUMPDEST DUP2 MLOAD PUSH3 0x2E4 DUP5 DUP3 PUSH1 0x20 DUP7 ADD PUSH3 0x26F JUMP JUMPDEST SWAP2 POP POP SWAP3 SWAP2 POP POP JUMP JUMPDEST PUSH1 0x0 DUP2 SWAP1 POP SWAP2 SWAP1 POP JUMP JUMPDEST PUSH3 0x302 DUP2 PUSH3 0x2ED JUMP JUMPDEST DUP2 EQ PUSH3 0x30E JUMPI PUSH1 0x0 DUP1 REVERT JUMPDEST POP JUMP JUMPDEST PUSH1 0x0 DUP2 MLOAD SWAP1 POP PUSH3 0x322 DUP2 PUSH3 0x2F7 JUMP JUMPDEST SWAP3 SWAP2 POP POP JUMP JUMPDEST PUSH1 0x0 PUSH20 0xFFFFFFFFFFFFFFFFFFFFFFFFFFFFFFFFFFFFFFFF DUP3 AND SWAP1 POP SWAP2 SWAP1 POP JUMP JUMPDEST PUSH1 0x0 PUSH3 0x355 DUP3 PUSH3 0x328 JUMP JUMPDEST SWAP1 POP SWAP2 SWAP1 POP JUMP JUMPDEST PUSH3 0x367 DUP2 PUSH3 0x348 JUMP JUMPDEST DUP2 EQ PUSH3 0x373 JUMPI PUSH1 0x0 DUP1 REVERT JUMPDEST POP JUMP JUMPDEST PUSH1 0x0 DUP2 MLOAD SWAP1 POP PUSH3 0x387 DUP2 PUSH3 0x35C JUMP JUMPDEST SWAP3 SWAP2 POP POP JUMP JUMPDEST PUSH1 0x0 DUP1 PUSH1 0x0 PUSH1 0x60 DUP5 DUP7 SUB SLT ISZERO PUSH3 0x3A9 JUMPI PUSH3 0x3A8 PUSH3 0x15A JUMP JUMPDEST JUMPDEST PUSH1 0x0 DUP5 ADD MLOAD PUSH8 0xFFFFFFFFFFFFFFFF DUP2 GT ISZERO PUSH3 0x3CA JUMPI PUSH3 0x3C9 PUSH3 0x15F JUMP JUMPDEST JUMPDEST PUSH3 0x3D8 DUP7 DUP3 DUP8 ADD PUSH3 0x2BA JUMP JUMPDEST SWAP4 POP POP PUSH1 0x20 PUSH3 0x3EB DUP7 DUP3 DUP8 ADD PUSH3 0x311 JUMP JUMPDEST SWAP3 POP POP PUSH1 0x40 PUSH3 0x3FE DUP7 DUP3 DUP8 ADD PUSH3 0x376 JUMP JUMPDEST SWAP2 POP POP SWAP3 POP SWAP3 POP SWAP3 JUMP JUMPDEST PUSH32 0x4E487B7100000000000000000000000000000000000000000000000000000000 PUSH1 0x0 MSTORE PUSH1 0x22 PUSH1 0x4 MSTORE PUSH1 0x24 PUSH1 0x0 REVERT JUMPDEST PUSH1 0x0 PUSH1 0x2 DUP3 DIV SWAP1 POP PUSH1 0x1 DUP3 AND DUP1 PUSH3 0x450 JUMPI PUSH1 0x7F DUP3 AND SWAP2 POP JUMPDEST PUSH1 0x20 DUP3 LT DUP2 SUB PUSH3 0x466 JUMPI PUSH3 0x465 PUSH3 0x408 JUMP JUMPDEST JUMPDEST POP SWAP2 SWAP1 POP JUMP JUMPDEST PUSH2 0x1126 DUP1 PUSH3 0x47C PUSH1 0x0 CODECOPY PUSH1 0x0 RETURN INVALID PUSH1 0x80 PUSH1 0x40 MSTORE PUSH1 0x4 CALLDATASIZE LT PUSH2 0xC2 JUMPI PUSH1 0x0 CALLDATALOAD PUSH1 0xE0 SHR DUP1 PUSH4 0x8A9CFD55 GT PUSH2 0x7F JUMPI DUP1 PUSH4 0xCE50AC76 GT PUSH2 0x59 JUMPI DUP1 PUSH4 0xCE50AC76 EQ PUSH2 0x273 JUMPI DUP1 PUSH4 0xD7BB99BA EQ PUSH2 0x29C JUMPI DUP1 PUSH4 0xD7D1BBDB EQ PUSH2 0x2A6 JUMPI DUP1 PUSH4 0xFBFA4B7F EQ PUSH2 0x2CF JUMPI PUSH2 0xC2 JUMP JUMPDEST DUP1 PUSH4 0x8A9CFD55 EQ PUSH2 0x1F6 JUMPI DUP1 PUSH4 0x937E09B1 EQ PUSH2 0x21F JUMPI DUP1 PUSH4 0xCC58B5EF EQ PUSH2 0x24A JUMPI PUSH2 0xC2 JUMP JUMPDEST DUP1 PUSH4 0xA144391 EQ PUSH2 0xC7 JUMPI DUP1 PUSH4 0x481C6A75 EQ PUSH2 0x104 JUMPI DUP1 PUSH4 0x5B2A4CFF EQ PUSH2 0x12F JUMPI DUP1 PUSH4 0x75D0C0DC EQ PUSH2 0x15F JUMPI DUP1 PUSH4 0x81D12C58 EQ PUSH2 0x18A JUMPI DUP1 PUSH4 0x82FDE093 EQ PUSH2 0x1CB JUMPI JUMPDEST PUSH1 0x0 DUP1 REVERT JUMPDEST CALLVALUE DUP1 ISZERO PUSH2 0xD3 JUMPI PUSH1 0x0 DUP1 REVERT JUMPDEST POP PUSH2 0xEE PUSH1 0x4 DUP1 CALLDATASIZE SUB DUP2 ADD SWAP1 PUSH2 0xE9 SWAP2 SWAP1 PUSH2 0xB35 JUMP JUMPDEST PUSH2 0x2FA JUMP JUMPDEST PUSH1 0x40 MLOAD PUSH2 0xFB SWAP2 SWAP1 PUSH2 0xB7D JUMP JUMPDEST PUSH1 0x40 MLOAD DUP1 SWAP2 SUB SWAP1 RETURN JUMPDEST CALLVALUE DUP1 ISZERO PUSH2 0x110 JUMPI PUSH1 0x0 DUP1 REVERT JUMPDEST POP PUSH2 0x119 PUSH2 0x31A JUMP JUMPDEST PUSH1 0x40 MLOAD PUSH2 0x126 SWAP2 SWAP1 PUSH2 0xBA7 JUMP JUMPDEST PUSH1 0x40 MLOAD DUP1 SWAP2 SUB SWAP1 RETURN JUMPDEST CALLVALUE DUP1 ISZERO PUSH2 0x13B JUMPI PUSH1 0x0 DUP1 REVERT JUMPDEST POP PUSH2 0x144 PUSH2 0x33E JUMP JUMPDEST PUSH1 0x40 MLOAD PUSH2 0x156 SWAP7 SWAP6 SWAP5 SWAP4 SWAP3 SWAP2 SWAP1 PUSH2 0xC74 JUMP JUMPDEST PUSH1 0x40 MLOAD DUP1 SWAP2 SUB SWAP1 RETURN JUMPDEST CALLVALUE DUP1 ISZERO PUSH2 0x16B JUMPI PUSH1 0x0 DUP1 REVERT JUMPDEST POP PUSH2 0x174 PUSH2 0x415 JUMP JUMPDEST PUSH1 0x40 MLOAD PUSH2 0x181 SWAP2 SWAP1 PUSH2 0xCDC JUMP JUMPDEST PUSH1 0x40 MLOAD DUP1 SWAP2 SUB SWAP1 RETURN JUMPDEST CALLVALUE DUP1 ISZERO PUSH2 0x196 JUMPI PUSH1 0x0 DUP1 REVERT JUMPDEST POP PUSH2 0x1B1 PUSH1 0x4 DUP1 CALLDATASIZE SUB DUP2 ADD SWAP1 PUSH2 0x1AC SWAP2 SWAP1 PUSH2 0xD2A JUMP JUMPDEST PUSH2 0x4A3 JUMP JUMPDEST PUSH1 0x40 MLOAD PUSH2 0x1C2 SWAP6 SWAP5 SWAP4 SWAP3 SWAP2 SWAP1 PUSH2 0xD57 JUMP JUMPDEST PUSH1 0x40 MLOAD DUP1 SWAP2 SUB SWAP1 RETURN JUMPDEST CALLVALUE DUP1 ISZERO PUSH2 0x1D7 JUMPI PUSH1 0x0 DUP1 REVERT JUMPDEST POP PUSH2 0x1E0 PUSH2 0x58E JUMP JUMPDEST PUSH1 0x40 MLOAD PUSH2 0x1ED SWAP2 SWAP1 PUSH2 0xDB1 JUMP JUMPDEST PUSH1 0x40 MLOAD DUP1 SWAP2 SUB SWAP1 RETURN JUMPDEST CALLVALUE DUP1 ISZERO PUSH2 0x202 JUMPI PUSH1 0x0 DUP1 REVERT JUMPDEST POP PUSH2 0x21D PUSH1 0x4 DUP1 CALLDATASIZE SUB DUP2 ADD SWAP1 PUSH2 0x218 SWAP2 SWAP1 PUSH2 0xF01 JUMP JUMPDEST PUSH2 0x594 JUMP JUMPDEST STOP JUMPDEST CALLVALUE DUP1 ISZERO PUSH2 0x22B JUMPI PUSH1 0x0 DUP1 REVERT JUMPDEST POP PUSH2 0x234 PUSH2 0x6AB JUMP JUMPDEST PUSH1 0x40 MLOAD PUSH2 0x241 SWAP2 SWAP1 PUSH2 0xDB1 JUMP JUMPDEST PUSH1 0x40 MLOAD DUP1 SWAP2 SUB SWAP1 RETURN JUMPDEST CALLVALUE DUP1 ISZERO PUSH2 0x256 JUMPI PUSH1 0x0 DUP1 REVERT JUMPDEST POP PUSH2 0x271 PUSH1 0x4 DUP1 CALLDATASIZE SUB DUP2 ADD SWAP1 PUSH2 0x26C SWAP2 SWAP1 PUSH2 0xD2A JUMP JUMPDEST PUSH2 0x6B1 JUMP JUMPDEST STOP JUMPDEST CALLVALUE DUP1 ISZERO PUSH2 0x27F JUMPI PUSH1 0x0 DUP1 REVERT JUMPDEST POP PUSH2 0x29A PUSH1 0x4 DUP1 CALLDATASIZE SUB DUP2 ADD SWAP1 PUSH2 0x295 SWAP2 SWAP1 PUSH2 0xF70 JUMP JUMPDEST PUSH2 0x7EA JUMP JUMPDEST STOP JUMPDEST PUSH2 0x2A4 PUSH2 0x85C JUMP JUMPDEST STOP JUMPDEST CALLVALUE DUP1 ISZERO PUSH2 0x2B2 JUMPI PUSH1 0x0 DUP1 REVERT JUMPDEST POP PUSH2 0x2CD PUSH1 0x4 DUP1 CALLDATASIZE SUB DUP2 ADD SWAP1 PUSH2 0x2C8 SWAP2 SWAP1 PUSH2 0xD2A JUMP JUMPDEST PUSH2 0x8DC JUMP JUMPDEST STOP JUMPDEST CALLVALUE DUP1 ISZERO PUSH2 0x2DB JUMPI PUSH1 0x0 DUP1 REVERT JUMPDEST POP PUSH2 0x2E4 PUSH2 0xA1A JUMP JUMPDEST PUSH1 0x40 MLOAD PUSH2 0x2F1 SWAP2 SWAP1 PUSH2 0xDB1 JUMP JUMPDEST PUSH1 0x40 MLOAD DUP1 SWAP2 SUB SWAP1 RETURN JUMPDEST PUSH1 0x3 PUSH1 0x20 MSTORE DUP1 PUSH1 0x0 MSTORE PUSH1 0x40 PUSH1 0x0 KECCAK256 PUSH1 0x0 SWAP2 POP SLOAD SWAP1 PUSH2 0x100 EXP SWAP1 DIV PUSH1 0xFF AND DUP2 JUMP JUMPDEST PUSH1 0x0 DUP1 SLOAD SWAP1 PUSH2 0x100 EXP SWAP1 DIV PUSH20 0xFFFFFFFFFFFFFFFFFFFFFFFFFFFFFFFFFFFFFFFF AND DUP2 JUMP JUMPDEST PUSH1 0x60 PUSH1 0x0 DUP1 PUSH1 0x0 DUP1 PUSH1 0x0 PUSH1 0x2 PUSH1 0x0 DUP1 SLOAD SWAP1 PUSH2 0x100 EXP SWAP1 DIV PUSH20 0xFFFFFFFFFFFFFFFFFFFFFFFFFFFFFFFFFFFFFFFF AND PUSH1 0x1 SLOAD PUSH1 0x5 SLOAD PUSH1 0x6 SLOAD SELFBALANCE DUP6 DUP1 SLOAD PUSH2 0x381 SWAP1 PUSH2 0xFE8 JUMP JUMPDEST DUP1 PUSH1 0x1F ADD PUSH1 0x20 DUP1 SWAP2 DIV MUL PUSH1 0x20 ADD PUSH1 0x40 MLOAD SWAP1 DUP2 ADD PUSH1 0x40 MSTORE DUP1 SWAP3 SWAP2 SWAP1 DUP2 DUP2 MSTORE PUSH1 0x20 ADD DUP3 DUP1 SLOAD PUSH2 0x3AD SWAP1 PUSH2 0xFE8 JUMP JUMPDEST DUP1 ISZERO PUSH2 0x3FA JUMPI DUP1 PUSH1 0x1F LT PUSH2 0x3CF JUMPI PUSH2 0x100 DUP1 DUP4 SLOAD DIV MUL DUP4 MSTORE SWAP2 PUSH1 0x20 ADD SWAP2 PUSH2 0x3FA JUMP JUMPDEST DUP3 ADD SWAP2 SWAP1 PUSH1 0x0 MSTORE PUSH1 0x20 PUSH1 0x0 KECCAK256 SWAP1 JUMPDEST DUP2 SLOAD DUP2 MSTORE SWAP1 PUSH1 0x1 ADD SWAP1 PUSH1 0x20 ADD DUP1 DUP4 GT PUSH2 0x3DD JUMPI DUP3 SWAP1 SUB PUSH1 0x1F AND DUP3 ADD SWAP2 JUMPDEST POP POP POP POP POP SWAP6 POP SWAP6 POP SWAP6 POP SWAP6 POP SWAP6 POP SWAP6 POP SWAP6 POP SWAP1 SWAP2 SWAP3 SWAP4 SWAP5 SWAP6 JUMP JUMPDEST PUSH1 0x2 DUP1 SLOAD PUSH2 0x422 SWAP1 PUSH2 0xFE8 JUMP JUMPDEST DUP1 PUSH1 0x1F ADD PUSH1 0x20 DUP1 SWAP2 DIV MUL PUSH1 0x20 ADD PUSH1 0x40 MLOAD SWAP1 DUP2 ADD PUSH1 0x40 MSTORE DUP1 SWAP3 SWAP2 SWAP1 DUP2 DUP2 MSTORE PUSH1 0x20 ADD DUP3 DUP1 SLOAD PUSH2 0x44E SWAP1 PUSH2 0xFE8 JUMP JUMPDEST DUP1 ISZERO PUSH2 0x49B JUMPI DUP1 PUSH1 0x1F LT PUSH2 0x470 JUMPI PUSH2 0x100 DUP1 DUP4 SLOAD DIV MUL DUP4 MSTORE SWAP2 PUSH1 0x20 ADD SWAP2 PUSH2 0x49B JUMP JUMPDEST DUP3 ADD SWAP2 SWAP1 PUSH1 0x0 MSTORE PUSH1 0x20 PUSH1 0x0 KECCAK256 SWAP1 JUMPDEST DUP2 SLOAD DUP2 MSTORE SWAP1 PUSH1 0x1 ADD SWAP1 PUSH1 0x20 ADD DUP1 DUP4 GT PUSH2 0x47E JUMPI DUP3 SWAP1 SUB PUSH1 0x1F AND DUP3 ADD SWAP2 JUMPDEST POP POP POP POP POP DUP2 JUMP JUMPDEST PUSH1 0x4 PUSH1 0x20 MSTORE DUP1 PUSH1 0x0 MSTORE PUSH1 0x40 PUSH1 0x0 KECCAK256 PUSH1 0x0 SWAP2 POP SWAP1 POP DUP1 PUSH1 0x0 ADD DUP1 SLOAD PUSH2 0x4C6 SWAP1 PUSH2 0xFE8 JUMP JUMPDEST DUP1 PUSH1 0x1F ADD PUSH1 0x20 DUP1 SWAP2 DIV MUL PUSH1 0x20 ADD PUSH1 0x40 MLOAD SWAP1 DUP2 ADD PUSH1 0x40 MSTORE DUP1 SWAP3 SWAP2 SWAP1 DUP2 DUP2 MSTORE PUSH1 0x20 ADD DUP3 DUP1 SLOAD PUSH2 0x4F2 SWAP1 PUSH2 0xFE8 JUMP JUMPDEST DUP1 ISZERO PUSH2 0x53F JUMPI DUP1 PUSH1 0x1F LT PUSH2 0x514 JUMPI PUSH2 0x100 DUP1 DUP4 SLOAD DIV MUL DUP4 MSTORE SWAP2 PUSH1 0x20 ADD SWAP2 PUSH2 0x53F JUMP JUMPDEST DUP3 ADD SWAP2 SWAP1 PUSH1 0x0 MSTORE PUSH1 0x20 PUSH1 0x0 KECCAK256 SWAP1 JUMPDEST DUP2 SLOAD DUP2 MSTORE SWAP1 PUSH1 0x1 ADD SWAP1 PUSH1 0x20 ADD DUP1 DUP4 GT PUSH2 0x522 JUMPI DUP3 SWAP1 SUB PUSH1 0x1F AND DUP3 ADD SWAP2 JUMPDEST POP POP POP POP POP SWAP1 DUP1 PUSH1 0x1 ADD SLOAD SWAP1 DUP1 PUSH1 0x2 ADD PUSH1 0x0 SWAP1 SLOAD SWAP1 PUSH2 0x100 EXP SWAP1 DIV PUSH20 0xFFFFFFFFFFFFFFFFFFFFFFFFFFFFFFFFFFFFFFFF AND SWAP1 DUP1 PUSH1 0x2 ADD PUSH1 0x14 SWAP1 SLOAD SWAP1 PUSH2 0x100 EXP SWAP1 DIV PUSH1 0xFF AND SWAP1 DUP1 PUSH1 0x3 ADD SLOAD SWAP1 POP DUP6 JUMP JUMPDEST PUSH1 0x6 SLOAD DUP2 JUMP JUMPDEST PUSH1 0x0 DUP1 SLOAD SWAP1 PUSH2 0x100 EXP SWAP1 DIV PUSH20 0xFFFFFFFFFFFFFFFFFFFFFFFFFFFFFFFFFFFFFFFF AND PUSH20 0xFFFFFFFFFFFFFFFFFFFFFFFFFFFFFFFFFFFFFFFF AND CALLER PUSH20 0xFFFFFFFFFFFFFFFFFFFFFFFFFFFFFFFFFFFFFFFF AND EQ PUSH2 0x5EC JUMPI PUSH1 0x0 DUP1 REVERT JUMPDEST PUSH1 0x0 PUSH1 0x4 PUSH1 0x0 PUSH1 0x5 PUSH1 0x0 DUP2 SLOAD DUP1 SWAP3 SWAP2 SWAP1 PUSH2 0x605 SWAP1 PUSH2 0x1048 JUMP JUMPDEST SWAP2 SWAP1 POP SSTORE DUP2 MSTORE PUSH1 0x20 ADD SWAP1 DUP2 MSTORE PUSH1 0x20 ADD PUSH1 0x0 KECCAK256 SWAP1 POP DUP4 DUP2 PUSH1 0x0 ADD SWAP1 DUP1 MLOAD SWAP1 PUSH1 0x20 ADD SWAP1 PUSH2 0x631 SWAP3 SWAP2 SWAP1 PUSH2 0xA20 JUMP JUMPDEST POP DUP3 DUP2 PUSH1 0x1 ADD DUP2 SWAP1 SSTORE POP DUP2 DUP2 PUSH1 0x2 ADD PUSH1 0x0 PUSH2 0x100 EXP DUP2 SLOAD DUP2 PUSH20 0xFFFFFFFFFFFFFFFFFFFFFFFFFFFFFFFFFFFFFFFF MUL NOT AND SWAP1 DUP4 PUSH20 0xFFFFFFFFFFFFFFFFFFFFFFFFFFFFFFFFFFFFFFFF AND MUL OR SWAP1 SSTORE POP PUSH1 0x0 DUP2 PUSH1 0x2 ADD PUSH1 0x14 PUSH2 0x100 EXP DUP2 SLOAD DUP2 PUSH1 0xFF MUL NOT AND SWAP1 DUP4 ISZERO ISZERO MUL OR SWAP1 SSTORE POP PUSH1 0x0 DUP2 PUSH1 0x3 ADD DUP2 SWAP1 SSTORE POP POP POP POP POP JUMP JUMPDEST PUSH1 0x1 SLOAD DUP2 JUMP JUMPDEST PUSH1 0x0 DUP1 SLOAD SWAP1 PUSH2 0x100 EXP SWAP1 DIV PUSH20 0xFFFFFFFFFFFFFFFFFFFFFFFFFFFFFFFFFFFFFFFF AND PUSH20 0xFFFFFFFFFFFFFFFFFFFFFFFFFFFFFFFFFFFFFFFF AND CALLER PUSH20 0xFFFFFFFFFFFFFFFFFFFFFFFFFFFFFFFFFFFFFFFF AND EQ PUSH2 0x709 JUMPI PUSH1 0x0 DUP1 REVERT JUMPDEST PUSH1 0x0 PUSH1 0x4 PUSH1 0x0 DUP4 DUP2 MSTORE PUSH1 0x20 ADD SWAP1 DUP2 MSTORE PUSH1 0x20 ADD PUSH1 0x0 KECCAK256 SWAP1 POP PUSH1 0x2 PUSH1 0x6 SLOAD PUSH2 0x72F SWAP2 SWAP1 PUSH2 0x10BF JUMP JUMPDEST DUP2 PUSH1 0x3 ADD SLOAD GT PUSH2 0x73E JUMPI PUSH1 0x0 DUP1 REVERT JUMPDEST DUP1 PUSH1 0x2 ADD PUSH1 0x14 SWAP1 SLOAD SWAP1 PUSH2 0x100 EXP SWAP1 DIV PUSH1 0xFF AND ISZERO PUSH2 0x75A JUMPI PUSH1 0x0 DUP1 REVERT JUMPDEST DUP1 PUSH1 0x2 ADD PUSH1 0x0 SWAP1 SLOAD SWAP1 PUSH2 0x100 EXP SWAP1 DIV PUSH20 0xFFFFFFFFFFFFFFFFFFFFFFFFFFFFFFFFFFFFFFFF AND PUSH20 0xFFFFFFFFFFFFFFFFFFFFFFFFFFFFFFFFFFFFFFFF AND PUSH2 0x8FC DUP3 PUSH1 0x1 ADD SLOAD SWAP1 DUP2 ISZERO MUL SWAP1 PUSH1 0x40 MLOAD PUSH1 0x0 PUSH1 0x40 MLOAD DUP1 DUP4 SUB DUP2 DUP6 DUP9 DUP9 CALL SWAP4 POP POP POP POP ISZERO DUP1 ISZERO PUSH2 0x7C8 JUMPI RETURNDATASIZE PUSH1 0x0 DUP1 RETURNDATACOPY RETURNDATASIZE PUSH1 0x0 REVERT JUMPDEST POP PUSH1 0x1 DUP2 PUSH1 0x2 ADD PUSH1 0x14 PUSH2 0x100 EXP DUP2 SLOAD DUP2 PUSH1 0xFF MUL NOT AND SWAP1 DUP4 ISZERO ISZERO MUL OR SWAP1 SSTORE POP POP POP JUMP JUMPDEST PUSH1 0x0 DUP1 SLOAD SWAP1 PUSH2 0x100 EXP SWAP1 DIV PUSH20 0xFFFFFFFFFFFFFFFFFFFFFFFFFFFFFFFFFFFFFFFF AND PUSH20 0xFFFFFFFFFFFFFFFFFFFFFFFFFFFFFFFFFFFFFFFF AND CALLER PUSH20 0xFFFFFFFFFFFFFFFFFFFFFFFFFFFFFFFFFFFFFFFF AND EQ PUSH2 0x842 JUMPI PUSH1 0x0 DUP1 REVERT JUMPDEST DUP1 PUSH1 0x2 SWAP1 DUP1 MLOAD SWAP1 PUSH1 0x20 ADD SWAP1 PUSH2 0x858 SWAP3 SWAP2 SWAP1 PUSH2 0xA20 JUMP JUMPDEST POP POP JUMP JUMPDEST PUSH1 0x1 SLOAD CALLVALUE GT PUSH2 0x86A JUMPI PUSH1 0x0 DUP1 REVERT JUMPDEST PUSH1 0x1 PUSH1 0x3 PUSH1 0x0 CALLER PUSH20 0xFFFFFFFFFFFFFFFFFFFFFFFFFFFFFFFFFFFFFFFF AND PUSH20 0xFFFFFFFFFFFFFFFFFFFFFFFFFFFFFFFFFFFFFFFF AND DUP2 MSTORE PUSH1 0x20 ADD SWAP1 DUP2 MSTORE PUSH1 0x20 ADD PUSH1 0x0 KECCAK256 PUSH1 0x0 PUSH2 0x100 EXP DUP2 SLOAD DUP2 PUSH1 0xFF MUL NOT AND SWAP1 DUP4 ISZERO ISZERO MUL OR SWAP1 SSTORE POP PUSH1 0x6 PUSH1 0x0 DUP2 SLOAD DUP1 SWAP3 SWAP2 SWAP1 PUSH2 0x8D5 SWAP1 PUSH2 0x1048 JUMP JUMPDEST SWAP2 SWAP1 POP SSTORE POP JUMP JUMPDEST PUSH1 0x0 PUSH1 0x4 PUSH1 0x0 DUP4 DUP2 MSTORE PUSH1 0x20 ADD SWAP1 DUP2 MSTORE PUSH1 0x20 ADD PUSH1 0x0 KECCAK256 SWAP1 POP PUSH1 0x3 PUSH1 0x0 CALLER PUSH20 0xFFFFFFFFFFFFFFFFFFFFFFFFFFFFFFFFFFFFFFFF AND PUSH20 0xFFFFFFFFFFFFFFFFFFFFFFFFFFFFFFFFFFFFFFFF AND DUP2 MSTORE PUSH1 0x20 ADD SWAP1 DUP2 MSTORE PUSH1 0x20 ADD PUSH1 0x0 KECCAK256 PUSH1 0x0 SWAP1 SLOAD SWAP1 PUSH2 0x100 EXP SWAP1 DIV PUSH1 0xFF AND PUSH2 0x949 JUMPI PUSH1 0x0 DUP1 REVERT JUMPDEST DUP1 PUSH1 0x4 ADD PUSH1 0x0 CALLER PUSH20 0xFFFFFFFFFFFFFFFFFFFFFFFFFFFFFFFFFFFFFFFF AND PUSH20 0xFFFFFFFFFFFFFFFFFFFFFFFFFFFFFFFFFFFFFFFF AND DUP2 MSTORE PUSH1 0x20 ADD SWAP1 DUP2 MSTORE PUSH1 0x20 ADD PUSH1 0x0 KECCAK256 PUSH1 0x0 SWAP1 SLOAD SWAP1 PUSH2 0x100 EXP SWAP1 DIV PUSH1 0xFF AND ISZERO PUSH2 0x9A2 JUMPI PUSH1 0x0 DUP1 REVERT JUMPDEST PUSH1 0x1 DUP2 PUSH1 0x4 ADD PUSH1 0x0 CALLER PUSH20 0xFFFFFFFFFFFFFFFFFFFFFFFFFFFFFFFFFFFFFFFF AND PUSH20 0xFFFFFFFFFFFFFFFFFFFFFFFFFFFFFFFFFFFFFFFF AND DUP2 MSTORE PUSH1 0x20 ADD SWAP1 DUP2 MSTORE PUSH1 0x20 ADD PUSH1 0x0 KECCAK256 PUSH1 0x0 PUSH2 0x100 EXP DUP2 SLOAD DUP2 PUSH1 0xFF MUL NOT AND SWAP1 DUP4 ISZERO ISZERO MUL OR SWAP1 SSTORE POP DUP1 PUSH1 0x3 ADD PUSH1 0x0 DUP2 SLOAD DUP1 SWAP3 SWAP2 SWAP1 PUSH2 0xA11 SWAP1 PUSH2 0x1048 JUMP JUMPDEST SWAP2 SWAP1 POP SSTORE POP POP POP JUMP JUMPDEST PUSH1 0x5 SLOAD DUP2 JUMP JUMPDEST DUP3 DUP1 SLOAD PUSH2 0xA2C SWAP1 PUSH2 0xFE8 JUMP JUMPDEST SWAP1 PUSH1 0x0 MSTORE PUSH1 0x20 PUSH1 0x0 KECCAK256 SWAP1 PUSH1 0x1F ADD PUSH1 0x20 SWAP1 DIV DUP2 ADD SWAP3 DUP3 PUSH2 0xA4E JUMPI PUSH1 0x0 DUP6 SSTORE PUSH2 0xA95 JUMP JUMPDEST DUP3 PUSH1 0x1F LT PUSH2 0xA67 JUMPI DUP1 MLOAD PUSH1 0xFF NOT AND DUP4 DUP1 ADD OR DUP6 SSTORE PUSH2 0xA95 JUMP JUMPDEST DUP3 DUP1 ADD PUSH1 0x1 ADD DUP6 SSTORE DUP3 ISZERO PUSH2 0xA95 JUMPI SWAP2 DUP3 ADD JUMPDEST DUP3 DUP2 GT ISZERO PUSH2 0xA94 JUMPI DUP3 MLOAD DUP3 SSTORE SWAP2 PUSH1 0x20 ADD SWAP2 SWAP1 PUSH1 0x1 ADD SWAP1 PUSH2 0xA79 JUMP JUMPDEST JUMPDEST POP SWAP1 POP PUSH2 0xAA2 SWAP2 SWAP1 PUSH2 0xAA6 JUMP JUMPDEST POP SWAP1 JUMP JUMPDEST JUMPDEST DUP1 DUP3 GT ISZERO PUSH2 0xABF JUMPI PUSH1 0x0 DUP2 PUSH1 0x0 SWAP1 SSTORE POP PUSH1 0x1 ADD PUSH2 0xAA7 JUMP JUMPDEST POP SWAP1 JUMP JUMPDEST PUSH1 0x0 PUSH1 0x40 MLOAD SWAP1 POP SWAP1 JUMP JUMPDEST PUSH1 0x0 DUP1 REVERT JUMPDEST PUSH1 0x0 DUP1 REVERT JUMPDEST PUSH1 0x0 PUSH20 0xFFFFFFFFFFFFFFFFFFFFFFFFFFFFFFFFFFFFFFFF DUP3 AND SWAP1 POP SWAP2 SWAP1 POP JUMP JUMPDEST PUSH1 0x0 PUSH2 0xB02 DUP3 PUSH2 0xAD7 JUMP JUMPDEST SWAP1 POP SWAP2 SWAP1 POP JUMP JUMPDEST PUSH2 0xB12 DUP2 PUSH2 0xAF7 JUMP JUMPDEST DUP2 EQ PUSH2 0xB1D JUMPI PUSH1 0x0 DUP1 REVERT JUMPDEST POP JUMP JUMPDEST PUSH1 0x0 DUP2 CALLDATALOAD SWAP1 POP PUSH2 0xB2F DUP2 PUSH2 0xB09 JUMP JUMPDEST SWAP3 SWAP2 POP POP JUMP JUMPDEST PUSH1 0x0 PUSH1 0x20 DUP3 DUP5 SUB SLT ISZERO PUSH2 0xB4B JUMPI PUSH2 0xB4A PUSH2 0xACD JUMP JUMPDEST JUMPDEST PUSH1 0x0 PUSH2 0xB59 DUP5 DUP3 DUP6 ADD PUSH2 0xB20 JUMP JUMPDEST SWAP2 POP POP SWAP3 SWAP2 POP POP JUMP JUMPDEST PUSH1 0x0 DUP2 ISZERO ISZERO SWAP1 POP SWAP2 SWAP1 POP JUMP JUMPDEST PUSH2 0xB77 DUP2 PUSH2 0xB62 JUMP JUMPDEST DUP3 MSTORE POP POP JUMP JUMPDEST PUSH1 0x0 PUSH1 0x20 DUP3 ADD SWAP1 POP PUSH2 0xB92 PUSH1 0x0 DUP4 ADD DUP5 PUSH2 0xB6E JUMP JUMPDEST SWAP3 SWAP2 POP POP JUMP JUMPDEST PUSH2 0xBA1 DUP2 PUSH2 0xAF7 JUMP JUMPDEST DUP3 MSTORE POP POP JUMP JUMPDEST PUSH1 0x0 PUSH1 0x20 DUP3 ADD SWAP1 POP PUSH2 0xBBC PUSH1 0x0 DUP4 ADD DUP5 PUSH2 0xB98 JUMP JUMPDEST SWAP3 SWAP2 POP POP JUMP JUMPDEST PUSH1 0x0 DUP2 MLOAD SWAP1 POP SWAP2 SWAP1 POP JUMP JUMPDEST PUSH1 0x0 DUP3 DUP3 MSTORE PUSH1 0x20 DUP3 ADD SWAP1 POP SWAP3 SWAP2 POP POP JUMP JUMPDEST PUSH1 0x0 JUMPDEST DUP4 DUP2 LT ISZERO PUSH2 0xBFC JUMPI DUP1 DUP3 ADD MLOAD DUP2 DUP5 ADD MSTORE PUSH1 0x20 DUP2 ADD SWAP1 POP PUSH2 0xBE1 JUMP JUMPDEST DUP4 DUP2 GT ISZERO PUSH2 0xC0B JUMPI PUSH1 0x0 DUP5 DUP5 ADD MSTORE JUMPDEST POP POP POP POP JUMP JUMPDEST PUSH1 0x0 PUSH1 0x1F NOT PUSH1 0x1F DUP4 ADD AND SWAP1 POP SWAP2 SWAP1 POP JUMP JUMPDEST PUSH1 0x0 PUSH2 0xC2D DUP3 PUSH2 0xBC2 JUMP JUMPDEST PUSH2 0xC37 DUP2 DUP6 PUSH2 0xBCD JUMP JUMPDEST SWAP4 POP PUSH2 0xC47 DUP2 DUP6 PUSH1 0x20 DUP7 ADD PUSH2 0xBDE JUMP JUMPDEST PUSH2 0xC50 DUP2 PUSH2 0xC11 JUMP JUMPDEST DUP5 ADD SWAP2 POP POP SWAP3 SWAP2 POP POP JUMP JUMPDEST PUSH1 0x0 DUP2 SWAP1 POP SWAP2 SWAP1 POP JUMP JUMPDEST PUSH2 0xC6E DUP2 PUSH2 0xC5B JUMP JUMPDEST DUP3 MSTORE POP POP JUMP JUMPDEST PUSH1 0x0 PUSH1 0xC0 DUP3 ADD SWAP1 POP DUP2 DUP2 SUB PUSH1 0x0 DUP4 ADD MSTORE PUSH2 0xC8E DUP2 DUP10 PUSH2 0xC22 JUMP JUMPDEST SWAP1 POP PUSH2 0xC9D PUSH1 0x20 DUP4 ADD DUP9 PUSH2 0xB98 JUMP JUMPDEST PUSH2 0xCAA PUSH1 0x40 DUP4 ADD DUP8 PUSH2 0xC65 JUMP JUMPDEST PUSH2 0xCB7 PUSH1 0x60 DUP4 ADD DUP7 PUSH2 0xC65 JUMP JUMPDEST PUSH2 0xCC4 PUSH1 0x80 DUP4 ADD DUP6 PUSH2 0xC65 JUMP JUMPDEST PUSH2 0xCD1 PUSH1 0xA0 DUP4 ADD DUP5 PUSH2 0xC65 JUMP JUMPDEST SWAP8 SWAP7 POP POP POP POP POP POP POP JUMP JUMPDEST PUSH1 0x0 PUSH1 0x20 DUP3 ADD SWAP1 POP DUP2 DUP2 SUB PUSH1 0x0 DUP4 ADD MSTORE PUSH2 0xCF6 DUP2 DUP5 PUSH2 0xC22 JUMP JUMPDEST SWAP1 POP SWAP3 SWAP2 POP POP JUMP JUMPDEST PUSH2 0xD07 DUP2 PUSH2 0xC5B JUMP JUMPDEST DUP2 EQ PUSH2 0xD12 JUMPI PUSH1 0x0 DUP1 REVERT JUMPDEST POP JUMP JUMPDEST PUSH1 0x0 DUP2 CALLDATALOAD SWAP1 POP PUSH2 0xD24 DUP2 PUSH2 0xCFE JUMP JUMPDEST SWAP3 SWAP2 POP POP JUMP JUMPDEST PUSH1 0x0 PUSH1 0x20 DUP3 DUP5 SUB SLT ISZERO PUSH2 0xD40 JUMPI PUSH2 0xD3F PUSH2 0xACD JUMP JUMPDEST JUMPDEST PUSH1 0x0 PUSH2 0xD4E DUP5 DUP3 DUP6 ADD PUSH2 0xD15 JUMP JUMPDEST SWAP2 POP POP SWAP3 SWAP2 POP POP JUMP JUMPDEST PUSH1 0x0 PUSH1 0xA0 DUP3 ADD SWAP1 POP DUP2 DUP2 SUB PUSH1 0x0 DUP4 ADD MSTORE PUSH2 0xD71 DUP2 DUP9 PUSH2 0xC22 JUMP JUMPDEST SWAP1 POP PUSH2 0xD80 PUSH1 0x20 DUP4 ADD DUP8 PUSH2 0xC65 JUMP JUMPDEST PUSH2 0xD8D PUSH1 0x40 DUP4 ADD DUP7 PUSH2 0xB98 JUMP JUMPDEST PUSH2 0xD9A PUSH1 0x60 DUP4 ADD DUP6 PUSH2 0xB6E JUMP JUMPDEST PUSH2 0xDA7 PUSH1 0x80 DUP4 ADD DUP5 PUSH2 0xC65 JUMP JUMPDEST SWAP7 SWAP6 POP POP POP POP POP POP JUMP JUMPDEST PUSH1 0x0 PUSH1 0x20 DUP3 ADD SWAP1 POP PUSH2 0xDC6 PUSH1 0x0 DUP4 ADD DUP5 PUSH2 0xC65 JUMP JUMPDEST SWAP3 SWAP2 POP POP JUMP JUMPDEST PUSH1 0x0 DUP1 REVERT JUMPDEST PUSH1 0x0 DUP1 REVERT JUMPDEST PUSH32 0x4E487B7100000000000000000000000000000000000000000000000000000000 PUSH1 0x0 MSTORE PUSH1 0x41 PUSH1 0x4 MSTORE PUSH1 0x24 PUSH1 0x0 REVERT JUMPDEST PUSH2 0xE0E DUP3 PUSH2 0xC11 JUMP JUMPDEST DUP2 ADD DUP2 DUP2 LT PUSH8 0xFFFFFFFFFFFFFFFF DUP3 GT OR ISZERO PUSH2 0xE2D JUMPI PUSH2 0xE2C PUSH2 0xDD6 JUMP JUMPDEST JUMPDEST DUP1 PUSH1 0x40 MSTORE POP POP POP JUMP JUMPDEST PUSH1 0x0 PUSH2 0xE40 PUSH2 0xAC3 JUMP JUMPDEST SWAP1 POP PUSH2 0xE4C DUP3 DUP3 PUSH2 0xE05 JUMP JUMPDEST SWAP2 SWAP1 POP JUMP JUMPDEST PUSH1 0x0 PUSH8 0xFFFFFFFFFFFFFFFF DUP3 GT ISZERO PUSH2 0xE6C JUMPI PUSH2 0xE6B PUSH2 0xDD6 JUMP JUMPDEST JUMPDEST PUSH2 0xE75 DUP3 PUSH2 0xC11 JUMP JUMPDEST SWAP1 POP PUSH1 0x20 DUP2 ADD SWAP1 POP SWAP2 SWAP1 POP JUMP JUMPDEST DUP3 DUP2 DUP4 CALLDATACOPY PUSH1 0x0 DUP4 DUP4 ADD MSTORE POP POP POP JUMP JUMPDEST PUSH1 0x0 PUSH2 0xEA4 PUSH2 0xE9F DUP5 PUSH2 0xE51 JUMP JUMPDEST PUSH2 0xE36 JUMP JUMPDEST SWAP1 POP DUP3 DUP2 MSTORE PUSH1 0x20 DUP2 ADD DUP5 DUP5 DUP5 ADD GT ISZERO PUSH2 0xEC0 JUMPI PUSH2 0xEBF PUSH2 0xDD1 JUMP JUMPDEST JUMPDEST PUSH2 0xECB DUP5 DUP3 DUP6 PUSH2 0xE82 JUMP JUMPDEST POP SWAP4 SWAP3 POP POP POP JUMP JUMPDEST PUSH1 0x0 DUP3 PUSH1 0x1F DUP4 ADD SLT PUSH2 0xEE8 JUMPI PUSH2 0xEE7 PUSH2 0xDCC JUMP JUMPDEST JUMPDEST DUP2 CALLDATALOAD PUSH2 0xEF8 DUP5 DUP3 PUSH1 0x20 DUP7 ADD PUSH2 0xE91 JUMP JUMPDEST SWAP2 POP POP SWAP3 SWAP2 POP POP JUMP JUMPDEST PUSH1 0x0 DUP1 PUSH1 0x0 PUSH1 0x60 DUP5 DUP7 SUB SLT ISZERO PUSH2 0xF1A JUMPI PUSH2 0xF19 PUSH2 0xACD JUMP JUMPDEST JUMPDEST PUSH1 0x0 DUP5 ADD CALLDATALOAD PUSH8 0xFFFFFFFFFFFFFFFF DUP2 GT ISZERO PUSH2 0xF38 JUMPI PUSH2 0xF37 PUSH2 0xAD2 JUMP JUMPDEST JUMPDEST PUSH2 0xF44 DUP7 DUP3 DUP8 ADD PUSH2 0xED3 JUMP JUMPDEST SWAP4 POP POP PUSH1 0x20 PUSH2 0xF55 DUP7 DUP3 DUP8 ADD PUSH2 0xD15 JUMP JUMPDEST SWAP3 POP POP PUSH1 0x40 PUSH2 0xF66 DUP7 DUP3 DUP8 ADD PUSH2 0xB20 JUMP JUMPDEST SWAP2 POP POP SWAP3 POP SWAP3 POP SWAP3 JUMP JUMPDEST PUSH1 0x0 PUSH1 0x20 DUP3 DUP5 SUB SLT ISZERO PUSH2 0xF86 JUMPI PUSH2 0xF85 PUSH2 0xACD JUMP JUMPDEST JUMPDEST PUSH1 0x0 DUP3 ADD CALLDATALOAD PUSH8 0xFFFFFFFFFFFFFFFF DUP2 GT ISZERO PUSH2 0xFA4 JUMPI PUSH2 0xFA3 PUSH2 0xAD2 JUMP JUMPDEST JUMPDEST PUSH2 0xFB0 DUP5 DUP3 DUP6 ADD PUSH2 0xED3 JUMP JUMPDEST SWAP2 POP POP SWAP3 SWAP2 POP POP JUMP JUMPDEST PUSH32 0x4E487B7100000000000000000000000000000000000000000000000000000000 PUSH1 0x0 MSTORE PUSH1 0x22 PUSH1 0x4 MSTORE PUSH1 0x24 PUSH1 0x0 REVERT JUMPDEST PUSH1 0x0 PUSH1 0x2 DUP3 DIV SWAP1 POP PUSH1 0x1 DUP3 AND DUP1 PUSH2 0x1000 JUMPI PUSH1 0x7F DUP3 AND SWAP2 POP JUMPDEST PUSH1 0x20 DUP3 LT DUP2 SUB PUSH2 0x1013 JUMPI PUSH2 0x1012 PUSH2 0xFB9 JUMP JUMPDEST JUMPDEST POP SWAP2 SWAP1 POP JUMP JUMPDEST PUSH32 0x4E487B7100000000000000000000000000000000000000000000000000000000 PUSH1 0x0 MSTORE PUSH1 0x11 PUSH1 0x4 MSTORE PUSH1 0x24 PUSH1 0x0 REVERT JUMPDEST PUSH1 0x0 PUSH2 0x1053 DUP3 PUSH2 0xC5B JUMP JUMPDEST SWAP2 POP PUSH32 0xFFFFFFFFFFFFFFFFFFFFFFFFFFFFFFFFFFFFFFFFFFFFFFFFFFFFFFFFFFFFFFFF DUP3 SUB PUSH2 0x1085 JUMPI PUSH2 0x1084 PUSH2 0x1019 JUMP JUMPDEST JUMPDEST PUSH1 0x1 DUP3 ADD SWAP1 POP SWAP2 SWAP1 POP JUMP JUMPDEST PUSH32 0x4E487B7100000000000000000000000000000000000000000000000000000000 PUSH1 0x0 MSTORE PUSH1 0x12 PUSH1 0x4 MSTORE PUSH1 0x24 PUSH1 0x0 REVERT JUMPDEST PUSH1 0x0 PUSH2 0x10CA DUP3 PUSH2 0xC5B JUMP JUMPDEST SWAP2 POP PUSH2 0x10D5 DUP4 PUSH2 0xC5B JUMP JUMPDEST SWAP3 POP DUP3 PUSH2 0x10E5 JUMPI PUSH2 0x10E4 PUSH2 0x1090 JUMP JUMPDEST JUMPDEST DUP3 DUP3 DIV SWAP1 POP SWAP3 SWAP2 POP POP JUMP INVALID LOG2 PUSH5 0x6970667358 0x22 SLT KECCAK256 0xE4 0xCC 0x2E DUP12 0xD5 PUSH15 0xDD76CC0BC013AD05CBACF629341855 0xE5 ADDRESS PUSH29 0xEA94477AED77835764736F6C634300080D003300000000000000000000 "},"gasEstimates":{"creation":{"codeDepositCost":"878000","executionCost":"infinite","totalCost":"infinite"},"external":{"approveRequest(uint256)":"infinite","approvers(address)":"2846","approversCount()":"2540","contractName()":"infinite","contribute()":"50999","createRequest(string,uint256,address)":"infinite","finishRequest(uint256)":"infinite","getDetail()":"infinite","manager()":"2534","minimumContribution()":"2474","requests(uint256)":"infinite","requestsCount()":"2517","updateContractName(string)":"infinite"}},"methodIdentifiers":{"approveRequest(uint256)":"d7d1bbdb","approvers(address)":"0a144391","approversCount()":"82fde093","contractName()":"75d0c0dc","contribute()":"d7bb99ba","createRequest(string,uint256,address)":"8a9cfd55","finishRequest(uint256)":"cc58b5ef","getDetail()":"5b2a4cff","manager()":"481c6a75","minimumContribution()":"937e09b1","requests(uint256)":"81d12c58","requestsCount()":"fbfa4b7f","updateContractName(string)":"ce50ac76"}},"storageLayout":{"storage":[{"astId":59,"contract":"Donation.sol:Donation","label":"manager","offset":0,"slot":"0","type":"t_address"},{"astId":61,"contract":"Donation.sol:Donation","label":"minimumContribution","offset":0,"slot":"1","type":"t_uint256"},{"astId":63,"contract":"Donation.sol:Donation","label":"contractName","offset":0,"slot":"2","type":"t_string_storage"},{"astId":67,"contract":"Donation.sol:Donation","label":"approvers","offset":0,"slot":"3","type":"t_mapping(t_address,t_bool)"},{"astId":72,"contract":"Donation.sol:Donation","label":"requests","offset":0,"slot":"4","type":"t_mapping(t_uint256,t_struct(Request)57_storage)"},{"astId":74,"contract":"Donation.sol:Donation","label":"requestsCount","offset":0,"slot":"5","type":"t_uint256"},{"astId":76,"contract":"Donation.sol:Donation","label":"approversCount","offset":0,"slot":"6","type":"t_uint256"}],"types":{"t_address":{"encoding":"inplace","label":"address","numberOfBytes":"20"},"t_bool":{"encoding":"inplace","label":"bool","numberOfBytes":"1"},"t_mapping(t_address,t_bool)":{"encoding":"mapping","key":"t_address","label":"mapping(address => bool)","numberOfBytes":"32","value":"t_bool"},"t_mapping(t_uint256,t_struct(Request)57_storage)":{"encoding":"mapping","key":"t_uint256","label":"mapping(uint256 => struct Donation.Request)","numberOfBytes":"32","value":"t_struct(Request)57_storage"},"t_string_storage":{"encoding":"bytes","label":"string","numberOfBytes":"32"},"t_struct(Request)57_storage":{"encoding":"inplace","label":"struct Donation.Request","members":[{"astId":44,"contract":"Donation.sol:Donation","label":"description","offset":0,"slot":"0","type":"t_string_storage"},{"astId":46,"contract":"Donation.sol:Donation","label":"value","offset":0,"slot":"1","type":"t_uint256"},{"astId":48,"contract":"Donation.sol:Donation","label":"recipient","offset":0,"slot":"2","type":"t_address"},{"astId":50,"contract":"Donation.sol:Donation","label":"complete","offset":20,"slot":"2","type":"t_bool"},{"astId":52,"contract":"Donation.sol:Donation","label":"approvalsCount","offset":0,"slot":"3","type":"t_uint256"},{"astId":56,"contract":"Donation.sol:Donation","label":"approvals","offset":0,"slot":"4","type":"t_mapping(t_address,t_bool)"}],"numberOfBytes":"160"},"t_uint256":{"encoding":"inplace","label":"uint256","numberOfBytes":"32"}}},"userdoc":{"kind":"user","methods":{},"version":1}}